{
  "contractName": "EIP712MetaTransaction",
  "abi": [
    {
      "inputs": [],
      "payable": false,
      "stateMutability": "nonpayable",
      "type": "constructor"
    },
    {
      "anonymous": false,
      "inputs": [
        {
          "indexed": false,
          "name": "userAddress",
          "type": "address"
        },
        {
          "indexed": false,
          "name": "relayerAddress",
          "type": "address"
        },
        {
          "indexed": false,
          "name": "functionSignature",
          "type": "bytes"
        }
      ],
      "name": "MetaTransactionExecuted",
      "type": "event"
    },
    {
      "constant": false,
      "inputs": [
        {
          "name": "userAddress",
          "type": "address"
        },
        {
          "name": "functionSignature",
          "type": "bytes"
        },
        {
          "name": "sigR",
          "type": "bytes32"
        },
        {
          "name": "sigS",
          "type": "bytes32"
        },
        {
          "name": "sigV",
          "type": "uint8"
        }
      ],
      "name": "executeMetaTransaction",
      "outputs": [
        {
          "name": "",
          "type": "bytes"
        }
      ],
      "payable": true,
      "stateMutability": "payable",
      "type": "function"
    },
    {
      "constant": true,
      "inputs": [
        {
          "name": "user",
          "type": "address"
        }
      ],
      "name": "getNonce",
      "outputs": [
        {
          "name": "nonce",
          "type": "uint256"
        }
      ],
      "payable": false,
      "stateMutability": "view",
      "type": "function"
    }
  ],
  "bytecode": "0x608060405234801561001057600080fd5b506040518060400160405280600481526020017f6e616d65000000000000000000000000000000000000000000000000000000008152506040518060400160405280600781526020017f76657273696f6e000000000000000000000000000000000000000000000000008152506040518060800160405280604f8152602001610a08604f91398051906020012082805190602001208280519060200120306100bc61011260201b60201c565b604080516020808201979097528082019590955260608501939093526001600160a01b03909116608084015260a0808401919091528151808403909101815260c090920190528051910120600055506101179050565b600090565b6108e2806101266000396000f3fe6080604052600436106100295760003560e01c80630c53c51c1461002e5780632d0335ab14610167575b600080fd5b6100f2600480360360a081101561004457600080fd5b6001600160a01b03823516919081019060408101602082013564010000000081111561006f57600080fd5b82018360208201111561008157600080fd5b803590602001918460018302840111640100000000831117156100a357600080fd5b91908080601f016020809104026020016040519081016040528093929190818152602001838380828437600092019190915250929550508235935050506020810135906040013560ff166101ac565b6040805160208082528351818301528351919283929083019185019080838360005b8381101561012c578181015183820152602001610114565b50505050905090810190601f1680156101595780820380516001836020036101000a031916815260200191505b509250505060405180910390f35b34801561017357600080fd5b5061019a6004803603602081101561018a57600080fd5b50356001600160a01b0316610538565b60408051918252519081900360200190f35b606060006101b986610553565b90506000356001600160e01b0319908116908216141561020a5760405162461bcd60e51b815260040180806020018281038252603d815260200180610850603d913960400191505060405180910390fd5b6102126107e2565b50604080516060810182526001600160a01b038916600081815260016020908152908490205483528201529081018790526102508882888888610573565b61028b5760405162461bcd60e51b815260040180806020018281038252602181526020018061088d6021913960400191505060405180910390fd5b6001600160a01b0388166000908152600160208190526040909120546102b69163ffffffff61066016565b600160008a6001600160a01b03166001600160a01b031681526020019081526020016000208190555060006060306001600160a01b0316898b6040516020018083805190602001908083835b602083106103215780518252601f199092019160209182019101610302565b6001836020036101000a038019825116818451168082178552505050505050905001826001600160a01b03166001600160a01b031660601b8152601401925050506040516020818303038152906040526040518082805190602001908083835b602083106103a05780518252601f199092019160209182019101610381565b6001836020036101000a0380198251168184511680821785525050505050509050019150506000604051808303816000865af19150503d8060008114610402576040519150601f19603f3d011682016040523d82523d6000602084013e610407565b606091505b50915091508161045e576040805162461bcd60e51b815260206004820152601c60248201527f46756e6374696f6e2063616c6c206e6f74207375636365737366756c00000000604482015290519081900360640190fd5b7f5845892132946850460bff5a0083f71031bc5bf9aadcd40f1de79423eac9b10b8a338b60405180846001600160a01b03166001600160a01b03168152602001836001600160a01b03166001600160a01b0316815260200180602001828103825283818151815260200191508051906020019080838360005b838110156104ef5781810151838201526020016104d7565b50505050905090810190601f16801561051c5780820380516001836020036101000a031916815260200191505b5094505050505060405180910390a19998505050505050505050565b6001600160a01b031660009081526001602052604090205490565b60008151600014156105675750600061056e565b5060208101515b919050565b6000806001610589610584886106c1565b610790565b84878760405160008152602001604052604051808581526020018460ff1660ff1681526020018381526020018281526020019450505050506020604051602081039080840390855afa1580156105e3573d6000803e3d6000fd5b5050604051601f1901519150506001600160a01b03811661063f576040805162461bcd60e51b8152602060048201526011602482015270496e76616c6964207369676e617475726560781b604482015290519081900360640190fd5b866001600160a01b0316816001600160a01b03161491505095945050505050565b6000828201838110156106ba576040805162461bcd60e51b815260206004820152601b60248201527f536166654d6174683a206164646974696f6e206f766572666c6f770000000000604482015290519081900360640190fd5b9392505050565b600060405180608001604052806043815260200161080d60439139805190602001208260000151836020015184604001516040518082805190602001908083835b602083106107215780518252601f199092019160209182019101610702565b51815160001960209485036101000a019081169019919091161790526040805194909201849003842084820199909952838201979097526001600160a01b039095166060830152506080808201969096528351808203909601865260a001909252505081519101209050919050565b600061079a6107dc565b82604051602001808061190160f01b81525060020183815260200182815260200192505050604051602081830303815290604052805190602001209050919050565b60005490565b60405180606001604052806000815260200160006001600160a01b0316815260200160608152509056fe4d6574615472616e73616374696f6e2875696e74323536206e6f6e63652c616464726573732066726f6d2c62797465732066756e6374696f6e5369676e61747572652966756e6374696f6e5369676e61747572652063616e206e6f74206265206f6620657865637574654d6574615472616e73616374696f6e206d6574686f645369676e657220616e64207369676e617475726520646f206e6f74206d61746368a265627a7a7230582021342fd51ea5135d8cc55e5db9467bd3a43aeea078aeba33385c5f02f34dae6b64736f6c634300050a0032454950373132446f6d61696e28737472696e67206e616d652c737472696e672076657273696f6e2c6164647265737320766572696679696e67436f6e74726163742c627974657333322073616c7429",
  "source": "//SPDX-License-Identifier: MIT\npragma solidity ^0.5.0;\n\nimport \"./EIP712Base.sol\";\nimport { SafeMath } from \"openzeppelin-solidity/contracts/math/SafeMath.sol\";\n\ncontract EIP712MetaTransaction is EIP712Base {\n    using SafeMath for uint256;\n    bytes32 private constant META_TRANSACTION_TYPEHASH = keccak256(bytes(\"MetaTransaction(uint256 nonce,address from,bytes functionSignature)\"));\n\n    event MetaTransactionExecuted(address userAddress, address payable relayerAddress, bytes functionSignature);\n    mapping(address => uint256) private nonces;\n\n    /*\n     * Meta transaction structure.\n     * No point of including value field here as if user is doing value transfer then he has the funds to pay for gas\n     * He should call the desired function directly in that case.\n     */\n    struct MetaTransaction {\n        uint256 nonce;\n        address from;\n        bytes functionSignature;\n    }\n\n    constructor() public EIP712Base('name', 'version') {}\n\n    function convertBytesToBytes4(bytes memory inBytes) internal returns (bytes4 outBytes4) {\n        if (inBytes.length == 0) {\n            return 0x0;\n        }\n\n        assembly {\n            outBytes4 := mload(add(inBytes, 32))\n        }\n    }\n\n    function executeMetaTransaction(address userAddress,\n        bytes memory functionSignature, bytes32 sigR, bytes32 sigS, uint8 sigV) public payable returns(bytes memory) {\n        bytes4 destinationFunctionSig = convertBytesToBytes4(functionSignature);\n        require(destinationFunctionSig != msg.sig, \"functionSignature can not be of executeMetaTransaction method\");\n        MetaTransaction memory metaTx = MetaTransaction({\n            nonce: nonces[userAddress],\n            from: userAddress,\n            functionSignature: functionSignature\n        });\n        require(verify(userAddress, metaTx, sigR, sigS, sigV), \"Signer and signature do not match\");\n        nonces[userAddress] = nonces[userAddress].add(1);\n        // Append userAddress at the end to extract it from calling context\n        (bool success, bytes memory returnData) = address(this).call(abi.encodePacked(functionSignature, userAddress));\n\n        require(success, \"Function call not successful\");\n        emit MetaTransactionExecuted(userAddress, msg.sender, functionSignature);\n        return returnData;\n    }\n\n    function hashMetaTransaction(MetaTransaction memory metaTx) internal pure returns (bytes32) {\n        return keccak256(abi.encode(\n            META_TRANSACTION_TYPEHASH,\n            metaTx.nonce,\n            metaTx.from,\n            keccak256(metaTx.functionSignature)\n        ));\n    }\n\n    function getNonce(address user) external view returns(uint256 nonce) {\n        nonce = nonces[user];\n    }\n\n    function verify(address user, MetaTransaction memory metaTx, bytes32 sigR, bytes32 sigS, uint8 sigV) internal view returns (bool) {\n        address signer = ecrecover(toTypedMessageHash(hashMetaTransaction(metaTx)), sigV, sigR, sigS);\n        require(signer != address(0), \"Invalid signature\");\n        return signer == user;\n    }\n\n    function msgSender() internal view returns(address sender) {\n        if(msg.sender == address(this)) {\n            bytes memory array = msg.data;\n            uint256 index = msg.data.length;\n            assembly {\n                // Load the 32 bytes word from memory with the address on the lower 20 bytes, and mask those.\n                sender := and(mload(add(array, index)), 0xffffffffffffffffffffffffffffffffffffffff)\n            }\n        } else {\n            sender = msg.sender;\n        }\n        return sender;\n    }\n}\n",
  "sourcePath": "/home/prasad/Desktop/dg/conditional-tokens-tutorial/contracts/metatx/EIP712MetaTransaction.sol",
  "compiler": {
    "name": "solc",
    "version": "0.5.10+commit.5a6ea5b1.Emscripten.clang"
  },
  "schemaVersion": "3.4.3",
  "updatedAt": "2021-10-28T07:29:13.639Z",
  "devdoc": {
    "methods": {}
  },
  "userdoc": {
    "methods": {}
  }
}