{
  "contractName": "ERC1155",
  "abi": [
    {
      "constant": true,
      "inputs": [
        {
          "name": "interfaceId",
          "type": "bytes4"
        }
      ],
      "name": "supportsInterface",
      "outputs": [
        {
          "name": "",
          "type": "bool"
        }
      ],
      "payable": false,
      "stateMutability": "view",
      "type": "function"
    },
    {
      "constant": false,
      "inputs": [
        {
          "name": "userAddress",
          "type": "address"
        },
        {
          "name": "functionSignature",
          "type": "bytes"
        },
        {
          "name": "sigR",
          "type": "bytes32"
        },
        {
          "name": "sigS",
          "type": "bytes32"
        },
        {
          "name": "sigV",
          "type": "uint8"
        }
      ],
      "name": "executeMetaTransaction",
      "outputs": [
        {
          "name": "",
          "type": "bytes"
        }
      ],
      "payable": true,
      "stateMutability": "payable",
      "type": "function"
    },
    {
      "constant": true,
      "inputs": [
        {
          "name": "user",
          "type": "address"
        }
      ],
      "name": "getNonce",
      "outputs": [
        {
          "name": "nonce",
          "type": "uint256"
        }
      ],
      "payable": false,
      "stateMutability": "view",
      "type": "function"
    },
    {
      "inputs": [],
      "payable": false,
      "stateMutability": "nonpayable",
      "type": "constructor"
    },
    {
      "anonymous": false,
      "inputs": [
        {
          "indexed": true,
          "name": "operator",
          "type": "address"
        },
        {
          "indexed": true,
          "name": "from",
          "type": "address"
        },
        {
          "indexed": true,
          "name": "to",
          "type": "address"
        },
        {
          "indexed": false,
          "name": "id",
          "type": "uint256"
        },
        {
          "indexed": false,
          "name": "value",
          "type": "uint256"
        }
      ],
      "name": "TransferSingle",
      "type": "event"
    },
    {
      "anonymous": false,
      "inputs": [
        {
          "indexed": true,
          "name": "operator",
          "type": "address"
        },
        {
          "indexed": true,
          "name": "from",
          "type": "address"
        },
        {
          "indexed": true,
          "name": "to",
          "type": "address"
        },
        {
          "indexed": false,
          "name": "ids",
          "type": "uint256[]"
        },
        {
          "indexed": false,
          "name": "values",
          "type": "uint256[]"
        }
      ],
      "name": "TransferBatch",
      "type": "event"
    },
    {
      "anonymous": false,
      "inputs": [
        {
          "indexed": true,
          "name": "owner",
          "type": "address"
        },
        {
          "indexed": true,
          "name": "operator",
          "type": "address"
        },
        {
          "indexed": false,
          "name": "approved",
          "type": "bool"
        }
      ],
      "name": "ApprovalForAll",
      "type": "event"
    },
    {
      "anonymous": false,
      "inputs": [
        {
          "indexed": false,
          "name": "value",
          "type": "string"
        },
        {
          "indexed": true,
          "name": "id",
          "type": "uint256"
        }
      ],
      "name": "URI",
      "type": "event"
    },
    {
      "anonymous": false,
      "inputs": [
        {
          "indexed": false,
          "name": "userAddress",
          "type": "address"
        },
        {
          "indexed": false,
          "name": "relayerAddress",
          "type": "address"
        },
        {
          "indexed": false,
          "name": "functionSignature",
          "type": "bytes"
        }
      ],
      "name": "MetaTransactionExecuted",
      "type": "event"
    },
    {
      "constant": true,
      "inputs": [
        {
          "name": "owner",
          "type": "address"
        },
        {
          "name": "id",
          "type": "uint256"
        }
      ],
      "name": "balanceOf",
      "outputs": [
        {
          "name": "",
          "type": "uint256"
        }
      ],
      "payable": false,
      "stateMutability": "view",
      "type": "function"
    },
    {
      "constant": true,
      "inputs": [
        {
          "name": "owners",
          "type": "address[]"
        },
        {
          "name": "ids",
          "type": "uint256[]"
        }
      ],
      "name": "balanceOfBatch",
      "outputs": [
        {
          "name": "",
          "type": "uint256[]"
        }
      ],
      "payable": false,
      "stateMutability": "view",
      "type": "function"
    },
    {
      "constant": false,
      "inputs": [
        {
          "name": "operator",
          "type": "address"
        },
        {
          "name": "approved",
          "type": "bool"
        }
      ],
      "name": "setApprovalForAll",
      "outputs": [],
      "payable": false,
      "stateMutability": "nonpayable",
      "type": "function"
    },
    {
      "constant": true,
      "inputs": [
        {
          "name": "owner",
          "type": "address"
        },
        {
          "name": "operator",
          "type": "address"
        }
      ],
      "name": "isApprovedForAll",
      "outputs": [
        {
          "name": "",
          "type": "bool"
        }
      ],
      "payable": false,
      "stateMutability": "view",
      "type": "function"
    },
    {
      "constant": false,
      "inputs": [
        {
          "name": "from",
          "type": "address"
        },
        {
          "name": "to",
          "type": "address"
        },
        {
          "name": "id",
          "type": "uint256"
        },
        {
          "name": "value",
          "type": "uint256"
        },
        {
          "name": "data",
          "type": "bytes"
        }
      ],
      "name": "safeTransferFrom",
      "outputs": [],
      "payable": false,
      "stateMutability": "nonpayable",
      "type": "function"
    },
    {
      "constant": false,
      "inputs": [
        {
          "name": "from",
          "type": "address"
        },
        {
          "name": "to",
          "type": "address"
        },
        {
          "name": "ids",
          "type": "uint256[]"
        },
        {
          "name": "values",
          "type": "uint256[]"
        },
        {
          "name": "data",
          "type": "bytes"
        }
      ],
      "name": "safeBatchTransferFrom",
      "outputs": [],
      "payable": false,
      "stateMutability": "nonpayable",
      "type": "function"
    }
  ],
  "bytecode": "0x60806040523480156200001157600080fd5b506040518060400160405280600481526020017f6e616d65000000000000000000000000000000000000000000000000000000008152506040518060400160405280600781526020017f76657273696f6e000000000000000000000000000000000000000000000000008152506040518060800160405280604f815260200162001e0f604f9139805190602001208280519060200120828051906020012030620000c06200017f60201b60201c565b604080516020808201979097528082019590955260608501939093526001600160a01b03909116608084015260a0808401919091528151808403909101815260c090920190528051910120600055506200014590507f01ffc9a7000000000000000000000000000000000000000000000000000000006001600160e01b036200018416565b620001797fd9b67a26000000000000000000000000000000000000000000000000000000006001600160e01b036200018416565b62000253565b600090565b7fffffffff0000000000000000000000000000000000000000000000000000000080821614156200021657604080517f08c379a000000000000000000000000000000000000000000000000000000000815260206004820152601c60248201527f4552433136353a20696e76616c696420696e7465726661636520696400000000604482015290519081900360640190fd5b7fffffffff00000000000000000000000000000000000000000000000000000000166000908152600260205260409020805460ff19166001179055565b611bac80620002636000396000f3fe6080604052600436106100855760003560e01c80632eb2c2d6116100595780632eb2c2d6146102875780634e1273f4146103bd578063a22cb4651461053d578063e985e9c514610578578063f242432a146105b357610085565b8062fdd58e1461008a57806301ffc9a7146100d55780630c53c51c1461011d5780632d0335ab14610254575b600080fd5b34801561009657600080fd5b506100c3600480360360408110156100ad57600080fd5b506001600160a01b038135169060200135610653565b60408051918252519081900360200190f35b3480156100e157600080fd5b50610109600480360360208110156100f857600080fd5b50356001600160e01b0319166106c2565b604080519115158252519081900360200190f35b6101df600480360360a081101561013357600080fd5b6001600160a01b038235169190810190604081016020820135600160201b81111561015d57600080fd5b82018360208201111561016f57600080fd5b803590602001918460018302840111600160201b8311171561019057600080fd5b91908080601f016020809104026020016040519081016040528093929190818152602001838380828437600092019190915250929550508235935050506020810135906040013560ff166106e5565b6040805160208082528351818301528351919283929083019185019080838360005b83811015610219578181015183820152602001610201565b50505050905090810190601f1680156102465780820380516001836020036101000a031916815260200191505b509250505060405180910390f35b34801561026057600080fd5b506100c36004803603602081101561027757600080fd5b50356001600160a01b0316610a71565b34801561029357600080fd5b506103bb600480360360a08110156102aa57600080fd5b6001600160a01b038235811692602081013590911691810190606081016040820135600160201b8111156102dd57600080fd5b8201836020820111156102ef57600080fd5b803590602001918460208302840111600160201b8311171561031057600080fd5b919390929091602081019035600160201b81111561032d57600080fd5b82018360208201111561033f57600080fd5b803590602001918460208302840111600160201b8311171561036057600080fd5b919390929091602081019035600160201b81111561037d57600080fd5b82018360208201111561038f57600080fd5b803590602001918460018302840111600160201b831117156103b057600080fd5b509092509050610a8c565b005b3480156103c957600080fd5b506104ed600480360360408110156103e057600080fd5b810190602081018135600160201b8111156103fa57600080fd5b82018360208201111561040c57600080fd5b803590602001918460208302840111600160201b8311171561042d57600080fd5b9190808060200260200160405190810160405280939291908181526020018383602002808284376000920191909152509295949360208101935035915050600160201b81111561047c57600080fd5b82018360208201111561048e57600080fd5b803590602001918460208302840111600160201b831117156104af57600080fd5b919080806020026020016040519081016040528093929190818152602001838360200280828437600092019190915250929550610e53945050505050565b60408051602080825283518183015283519192839290830191858101910280838360005b83811015610529578181015183820152602001610511565b505050509050019250505060405180910390f35b34801561054957600080fd5b506103bb6004803603604081101561056057600080fd5b506001600160a01b0381351690602001351515610fba565b34801561058457600080fd5b506101096004803603604081101561059b57600080fd5b506001600160a01b0381358116916020013516611051565b3480156105bf57600080fd5b506103bb600480360360a08110156105d657600080fd5b6001600160a01b03823581169260208101359091169160408201359160608101359181019060a081016080820135600160201b81111561061557600080fd5b82018360208201111561062757600080fd5b803590602001918460018302840111600160201b8311171561064857600080fd5b50909250905061107f565b60006001600160a01b03831661069a5760405162461bcd60e51b815260040180806020018281038252602b815260200180611955602b913960400191505060405180910390fd5b5060009081526003602090815260408083206001600160a01b03949094168352929052205490565b6001600160e01b0319811660009081526002602052604090205460ff165b919050565b606060006106f28661129f565b90506000356001600160e01b031990811690821614156107435760405162461bcd60e51b815260040180806020018281038252603d8152602001806119eb603d913960400191505060405180910390fd5b61074b61192a565b50604080516060810182526001600160a01b0389166000818152600160209081529084902054835282015290810187905261078988828888886112bb565b6107c45760405162461bcd60e51b8152600401808060200182810382526021815260200180611ac06021913960400191505060405180910390fd5b6001600160a01b0388166000908152600160208190526040909120546107ef9163ffffffff6113a816565b600160008a6001600160a01b03166001600160a01b031681526020019081526020016000208190555060006060306001600160a01b0316898b6040516020018083805190602001908083835b6020831061085a5780518252601f19909201916020918201910161083b565b6001836020036101000a038019825116818451168082178552505050505050905001826001600160a01b03166001600160a01b031660601b8152601401925050506040516020818303038152906040526040518082805190602001908083835b602083106108d95780518252601f1990920191602091820191016108ba565b6001836020036101000a0380198251168184511680821785525050505050509050019150506000604051808303816000865af19150503d806000811461093b576040519150601f19603f3d011682016040523d82523d6000602084013e610940565b606091505b509150915081610997576040805162461bcd60e51b815260206004820152601c60248201527f46756e6374696f6e2063616c6c206e6f74207375636365737366756c00000000604482015290519081900360640190fd5b7f5845892132946850460bff5a0083f71031bc5bf9aadcd40f1de79423eac9b10b8a338b60405180846001600160a01b03166001600160a01b03168152602001836001600160a01b03166001600160a01b0316815260200180602001828103825283818151815260200191508051906020019080838360005b83811015610a28578181015183820152602001610a10565b50505050905090810190601f168015610a555780820380516001836020036101000a031916815260200191505b5094505050505060405180910390a19998505050505050505050565b6001600160a01b031660009081526001602052604090205490565b848314610aca5760405162461bcd60e51b815260040180806020018281038252602e815260200180611ae1602e913960400191505060405180910390fd5b6001600160a01b038716610b0f5760405162461bcd60e51b81526004018080602001828103825260288152602001806119c36028913960400191505060405180910390fd5b610b17611409565b6001600160a01b0316886001600160a01b03161480610b7557506001600160a01b038816600090815260046020526040812090610b52611409565b6001600160a01b0316815260208101919091526040016000205460ff1615156001145b610bb05760405162461bcd60e51b8152600401808060200182810382526038815260200180611b0f6038913960400191505060405180910390fd5b60005b85811015610ce5576000878783818110610bc957fe5b9050602002013590506000868684818110610be057fe5b905060200201359050610c32816003600085815260200190815260200160002060008e6001600160a01b03166001600160a01b031681526020019081526020016000205461146790919063ffffffff16565b6003600084815260200190815260200160002060008d6001600160a01b03166001600160a01b0316815260200190815260200160002081905550610cb56003600084815260200190815260200160002060008c6001600160a01b03166001600160a01b0316815260200190815260200160002054826113a890919063ffffffff16565b60009283526003602090815260408085206001600160a01b038e1686529091529092209190915550600101610bb3565b50866001600160a01b0316886001600160a01b0316610d02611409565b6001600160a01b03167f4a39dc06d4c0dbc64b70af90fd698a233a518aa5d07e595d983b8c0526c8f7fb898989896040518080602001806020018381038352878782818152602001925060200280828437600083820152601f01601f19169091018481038352858152602090810191508690860280828437600083820152604051601f909101601f19169092018290039850909650505050505050a4610e49610da9611409565b898989898080602002602001604051908101604052809392919081815260200183836020028082843760009201919091525050604080516020808d0282810182019093528c82529093508c92508b91829185019084908082843760009201919091525050604080516020601f8c018190048102820181019092528a815292508a91508990819084018382808284376000920191909152506114c492505050565b5050505050505050565b60608151835114610e955760405162461bcd60e51b815260040180806020018281038252602e815260200180611a92602e913960400191505060405180910390fd5b60608351604051908082528060200260200182016040528015610ec2578160200160208202803883390190505b50905060005b8451811015610fb25760006001600160a01b0316858281518110610ee857fe5b60200260200101516001600160a01b03161415610f365760405162461bcd60e51b8152600401808060200182810382526034815260200180611a5e6034913960400191505060405180910390fd5b60036000858381518110610f4657fe5b602002602001015181526020019081526020016000206000868381518110610f6a57fe5b60200260200101516001600160a01b03166001600160a01b0316815260200190815260200160002054828281518110610f9f57fe5b6020908102919091010152600101610ec8565b509392505050565b8060046000610fc7611409565b6001600160a01b03908116825260208083019390935260409182016000908120918716808252919093529120805460ff19169215159290921790915561100b611409565b60408051841515815290516001600160a01b0392909216917f17307eab39ab6107e8899845ad3d59bd9653f200f220920489ca2b5937696c319181900360200190a35050565b6001600160a01b03918216600090815260046020908152604080832093909416825291909152205460ff1690565b6001600160a01b0385166110c45760405162461bcd60e51b81526004018080602001828103825260288152602001806119c36028913960400191505060405180910390fd5b6110cc611409565b6001600160a01b0316866001600160a01b0316148061112a57506001600160a01b038616600090815260046020526040812090611107611409565b6001600160a01b0316815260208101919091526040016000205460ff1615156001145b6111655760405162461bcd60e51b8152600401808060200182810382526038815260200180611b0f6038913960400191505060405180910390fd5b60008481526003602090815260408083206001600160a01b038a168452909152902054611198908463ffffffff61146716565b60008581526003602090815260408083206001600160a01b038b811685529252808320939093558716815220546111d09084906113a8565b60008581526003602090815260408083206001600160a01b03808b1680865291909352922092909255908716611204611409565b6001600160a01b03167fc3d58168c5ae7397731d063d5bbf3d657854427343f4c083240f7aacaa2d0f628787604051808381526020018281526020019250505060405180910390a4611297611257611409565b8787878787878080601f0160208091040260200160405190810160405280939291908181526020018383808284376000920191909152506116a192505050565b505050505050565b60008151600014156112b3575060006106e0565b506020015190565b60008060016112d16112cc88611803565b6118d2565b84878760405160008152602001604052604051808581526020018460ff1660ff1681526020018381526020018281526020019450505050506020604051602081039080840390855afa15801561132b573d6000803e3d6000fd5b5050604051601f1901519150506001600160a01b038116611387576040805162461bcd60e51b8152602060048201526011602482015270496e76616c6964207369676e617475726560781b604482015290519081900360640190fd5b866001600160a01b0316816001600160a01b03161491505095945050505050565b600082820183811015611402576040805162461bcd60e51b815260206004820152601b60248201527f536166654d6174683a206164646974696f6e206f766572666c6f770000000000604482015290519081900360640190fd5b9392505050565b6000333014156114615760606000368080601f0160208091040260200160405190810160405280939291908181526020018383808284376000920191909152505050503601516001600160a01b031691506114649050565b50335b90565b6000828211156114be576040805162461bcd60e51b815260206004820152601e60248201527f536166654d6174683a207375627472616374696f6e206f766572666c6f770000604482015290519081900360640190fd5b50900390565b6114d6846001600160a01b031661191e565b156112975760405163bc197c8160e01b8082526001600160a01b0388811660048401908152888216602485015260a060448501908152875160a4860152875193949289169363bc197c81938c938c938b938b938b9392916064820191608481019160c4909101906020808a01910280838360005b8381101561156257818101518382015260200161154a565b50505050905001848103835286818151815260200191508051906020019060200280838360005b838110156115a1578181015183820152602001611589565b50505050905001848103825285818151815260200191508051906020019080838360005b838110156115dd5781810151838201526020016115c5565b50505050905090810190601f16801561160a5780820380516001836020036101000a031916815260200191505b5098505050505050505050602060405180830381600087803b15801561162f57600080fd5b505af1158015611643573d6000803e3d6000fd5b505050506040513d602081101561165957600080fd5b50516001600160e01b031916146112975760405162461bcd60e51b8152600401808060200182810382526036815260200180611a286036913960400191505060405180910390fd5b6116b3846001600160a01b031661191e565b156112975760405163f23a6e6160e01b8082526001600160a01b03888116600484019081528882166024850152604484018790526064840186905260a060848501908152855160a4860152855193949289169363f23a6e61938c938c938b938b938b93929160c490910190602085019080838360005b83811015611741578181015183820152602001611729565b50505050905090810190601f16801561176e5780820380516001836020036101000a031916815260200191505b509650505050505050602060405180830381600087803b15801561179157600080fd5b505af11580156117a5573d6000803e3d6000fd5b505050506040513d60208110156117bb57600080fd5b50516001600160e01b031916146112975760405162461bcd60e51b8152600401808060200182810382526031815260200180611b476031913960400191505060405180910390fd5b600060405180608001604052806043815260200161198060439139805190602001208260000151836020015184604001516040518082805190602001908083835b602083106118635780518252601f199092019160209182019101611844565b51815160001960209485036101000a019081169019919091161790526040805194909201849003842084820199909952838201979097526001600160a01b039095166060830152506080808201969096528351808203909601865260a001909252505081519101209050919050565b60006118dc611924565b82604051602001808061190160f01b81525060020183815260200182815260200192505050604051602081830303815290604052805190602001209050919050565b3b151590565b60005490565b60405180606001604052806000815260200160006001600160a01b0316815260200160608152509056fe455243313135353a2062616c616e636520717565727920666f7220746865207a65726f20616464726573734d6574615472616e73616374696f6e2875696e74323536206e6f6e63652c616464726573732066726f6d2c62797465732066756e6374696f6e5369676e617475726529455243313135353a207461726765742061646472657373206d757374206265206e6f6e2d7a65726f66756e6374696f6e5369676e61747572652063616e206e6f74206265206f6620657865637574654d6574615472616e73616374696f6e206d6574686f64455243313135353a20676f7420756e6b6e6f776e2076616c75652066726f6d206f6e4552433131353542617463685265636569766564455243313135353a20736f6d65206164647265737320696e2062617463682062616c616e6365207175657279206973207a65726f455243313135353a206f776e65727320616e6420494473206d75737420686176652073616d65206c656e677468735369676e657220616e64207369676e617475726520646f206e6f74206d61746368455243313135353a2049447320616e642076616c756573206d75737420686176652073616d65206c656e67746873455243313135353a206e656564206f70657261746f7220617070726f76616c20666f7220337264207061727479207472616e73666572732e455243313135353a20676f7420756e6b6e6f776e2076616c75652066726f6d206f6e455243313135355265636569766564a265627a7a723058204569ac57044a315c252f04510cd6b415276c41b7ba534d947e794e2de7ecd10464736f6c634300050a0032454950373132446f6d61696e28737472696e67206e616d652c737472696e672076657273696f6e2c6164647265737320766572696679696e67436f6e74726163742c627974657333322073616c7429",
  "source": "pragma solidity ^0.5.0;\n\nimport \"./IERC1155.sol\";\nimport \"./IERC1155TokenReceiver.sol\";\nimport \"openzeppelin-solidity/contracts/utils/Address.sol\";\nimport \"./ERC165.sol\";\n\nimport { SafeMath } from \"openzeppelin-solidity/contracts/math/SafeMath.sol\";\nimport { EIP712MetaTransaction } from '../../metatx/EIP712MetaTransaction.sol';\n\n/**\n * @title Standard ERC1155 token\n *\n * @dev Implementation of the basic standard multi-token.\n * See https://eips.ethereum.org/EIPS/eip-1155\n * Originally based on code by Enjin: https://github.com/enjin/erc-1155\n */\ncontract ERC1155 is EIP712MetaTransaction, ERC165, IERC1155\n{\n    using SafeMath for uint256;\n    using Address for address;\n\n    // Mapping from token ID to owner balances\n    mapping (uint256 => mapping(address => uint256)) private _balances;\n\n    // Mapping from owner to operator approvals\n    mapping (address => mapping(address => bool)) private _operatorApprovals;\n\n    constructor()\n        public\n    {\n        _registerInterface(\n            ERC1155(0).safeTransferFrom.selector ^\n            ERC1155(0).safeBatchTransferFrom.selector ^\n            ERC1155(0).balanceOf.selector ^\n            ERC1155(0).balanceOfBatch.selector ^\n            ERC1155(0).setApprovalForAll.selector ^\n            ERC1155(0).isApprovedForAll.selector\n        );\n    }\n\n    /**\n        @dev Get the specified address' balance for token with specified ID.\n        @param owner The address of the token holder\n        @param id ID of the token\n        @return The owner's balance of the token type requested\n     */\n    function balanceOf(address owner, uint256 id) public view returns (uint256) {\n        require(owner != address(0), \"ERC1155: balance query for the zero address\");\n        return _balances[id][owner];\n    }\n\n    /**\n        @dev Get the balance of multiple account/token pairs\n        @param owners The addresses of the token holders\n        @param ids IDs of the tokens\n        @return Balances for each owner and token id pair\n     */\n    function balanceOfBatch(\n        address[] memory owners,\n        uint256[] memory ids\n    )\n        public\n        view\n        returns (uint256[] memory)\n    {\n        require(owners.length == ids.length, \"ERC1155: owners and IDs must have same lengths\");\n\n        uint256[] memory batchBalances = new uint256[](owners.length);\n\n        for (uint256 i = 0; i < owners.length; ++i) {\n            require(owners[i] != address(0), \"ERC1155: some address in batch balance query is zero\");\n            batchBalances[i] = _balances[ids[i]][owners[i]];\n        }\n\n        return batchBalances;\n    }\n\n    /**\n     * @dev Sets or unsets the approval of a given operator\n     * An operator is allowed to transfer all tokens of the sender on their behalf\n     * @param operator address to set the approval\n     * @param approved representing the status of the approval to be set\n     */\n    function setApprovalForAll(address operator, bool approved) external {\n        _operatorApprovals[msgSender()][operator] = approved;\n        emit ApprovalForAll(msgSender(), operator, approved);\n    }\n\n    /**\n        @notice Queries the approval status of an operator for a given owner.\n        @param owner     The owner of the Tokens\n        @param operator  Address of authorized operator\n        @return           True if the operator is approved, false if not\n    */\n    function isApprovedForAll(address owner, address operator) external view returns (bool) {\n        return _operatorApprovals[owner][operator];\n    }\n\n    /**\n        @dev Transfers `value` amount of an `id` from the `from` address to the `to` address specified.\n        Caller must be approved to manage the tokens being transferred out of the `from` account.\n        If `to` is a smart contract, will call `onERC1155Received` on `to` and act appropriately.\n        @param from Source address\n        @param to Target address\n        @param id ID of the token type\n        @param value Transfer amount\n        @param data Data forwarded to `onERC1155Received` if `to` is a contract receiver\n    */\n    function safeTransferFrom(\n        address from,\n        address to,\n        uint256 id,\n        uint256 value,\n        bytes calldata data\n    )\n        external\n    {\n        require(to != address(0), \"ERC1155: target address must be non-zero\");\n        require(\n            from == msgSender() || _operatorApprovals[from][msgSender()] == true,\n            \"ERC1155: need operator approval for 3rd party transfers.\"\n        );\n\n        _balances[id][from] = _balances[id][from].sub(value);\n        _balances[id][to] = value.add(_balances[id][to]);\n\n        emit TransferSingle(msgSender(), from, to, id, value);\n\n        _doSafeTransferAcceptanceCheck(msgSender(), from, to, id, value, data);\n    }\n\n    /**\n        @dev Transfers `values` amount(s) of `ids` from the `from` address to the\n        `to` address specified. Caller must be approved to manage the tokens being\n        transferred out of the `from` account. If `to` is a smart contract, will\n        call `onERC1155BatchReceived` on `to` and act appropriately.\n        @param from Source address\n        @param to Target address\n        @param ids IDs of each token type\n        @param values Transfer amounts per token type\n        @param data Data forwarded to `onERC1155Received` if `to` is a contract receiver\n    */\n    function safeBatchTransferFrom(\n        address from,\n        address to,\n        uint256[] calldata ids,\n        uint256[] calldata values,\n        bytes calldata data\n    )\n        external\n    {\n        require(ids.length == values.length, \"ERC1155: IDs and values must have same lengths\");\n        require(to != address(0), \"ERC1155: target address must be non-zero\");\n        require(\n            from == msgSender() || _operatorApprovals[from][msgSender()] == true,\n            \"ERC1155: need operator approval for 3rd party transfers.\"\n        );\n\n        for (uint256 i = 0; i < ids.length; ++i) {\n            uint256 id = ids[i];\n            uint256 value = values[i];\n\n            _balances[id][from] = _balances[id][from].sub(value);\n            _balances[id][to] = value.add(_balances[id][to]);\n        }\n\n        emit TransferBatch(msgSender(), from, to, ids, values);\n\n        _doSafeBatchTransferAcceptanceCheck(msgSender(), from, to, ids, values, data);\n    }\n\n    /**\n     * @dev Internal function to mint an amount of a token with the given ID\n     * @param to The address that will own the minted token\n     * @param id ID of the token to be minted\n     * @param value Amount of the token to be minted\n     * @param data Data forwarded to `onERC1155Received` if `to` is a contract receiver\n     */\n    function _mint(address to, uint256 id, uint256 value, bytes memory data) internal {\n        require(to != address(0), \"ERC1155: mint to the zero address\");\n\n        _balances[id][to] = value.add(_balances[id][to]);\n        emit TransferSingle(msgSender(), address(0), to, id, value);\n\n        _doSafeTransferAcceptanceCheck(msgSender(), address(0), to, id, value, data);\n    }\n\n    /**\n     * @dev Internal function to batch mint amounts of tokens with the given IDs\n     * @param to The address that will own the minted token\n     * @param ids IDs of the tokens to be minted\n     * @param values Amounts of the tokens to be minted\n     * @param data Data forwarded to `onERC1155Received` if `to` is a contract receiver\n     */\n    function _batchMint(address to, uint256[] memory ids, uint256[] memory values, bytes memory data) internal {\n        require(to != address(0), \"ERC1155: batch mint to the zero address\");\n        require(ids.length == values.length, \"ERC1155: IDs and values must have same lengths\");\n\n        for(uint i = 0; i < ids.length; i++) {\n            _balances[ids[i]][to] = values[i].add(_balances[ids[i]][to]);\n        }\n\n        emit TransferBatch(msgSender(), address(0), to, ids, values);\n\n        _doSafeBatchTransferAcceptanceCheck(msgSender(), address(0), to, ids, values, data);\n    }\n\n    /**\n     * @dev Internal function to burn an amount of a token with the given ID\n     * @param owner Account which owns the token to be burnt\n     * @param id ID of the token to be burnt\n     * @param value Amount of the token to be burnt\n     */\n    function _burn(address owner, uint256 id, uint256 value) internal {\n        _balances[id][owner] = _balances[id][owner].sub(value);\n        emit TransferSingle(msgSender(), owner, address(0), id, value);\n    }\n\n    /**\n     * @dev Internal function to batch burn an amounts of tokens with the given IDs\n     * @param owner Account which owns the token to be burnt\n     * @param ids IDs of the tokens to be burnt\n     * @param values Amounts of the tokens to be burnt\n     */\n    function _batchBurn(address owner, uint256[] memory ids, uint256[] memory values) internal {\n        require(ids.length == values.length, \"ERC1155: IDs and values must have same lengths\");\n\n        for(uint i = 0; i < ids.length; i++) {\n            _balances[ids[i]][owner] = _balances[ids[i]][owner].sub(values[i]);\n        }\n\n        emit TransferBatch(msgSender(), owner, address(0), ids, values);\n    }\n\n    function _doSafeTransferAcceptanceCheck(\n        address operator,\n        address from,\n        address to,\n        uint256 id,\n        uint256 value,\n        bytes memory data\n    )\n        internal\n    {\n        if(to.isContract()) {\n            require(\n                IERC1155TokenReceiver(to).onERC1155Received(operator, from, id, value, data) ==\n                    IERC1155TokenReceiver(to).onERC1155Received.selector,\n                \"ERC1155: got unknown value from onERC1155Received\"\n            );\n        }\n    }\n\n    function _doSafeBatchTransferAcceptanceCheck(\n        address operator,\n        address from,\n        address to,\n        uint256[] memory ids,\n        uint256[] memory values,\n        bytes memory data\n    )\n        internal\n    {\n        if(to.isContract()) {\n            require(\n                IERC1155TokenReceiver(to).onERC1155BatchReceived(operator, from, ids, values, data) == IERC1155TokenReceiver(to).onERC1155BatchReceived.selector,\n                \"ERC1155: got unknown value from onERC1155BatchReceived\"\n            );\n        }\n    }\n}\n",
  "sourcePath": "/home/prasad/Desktop/dg/conditional-tokens-tutorial/contracts/conditional-tokens/ERC1155/ERC1155.sol",
  "compiler": {
    "name": "solc",
    "version": "0.5.10+commit.5a6ea5b1.Emscripten.clang"
  },
  "schemaVersion": "3.4.3",
  "updatedAt": "2021-10-28T07:29:13.631Z",
  "devdoc": {
    "details": "Implementation of the basic standard multi-token. See https://eips.ethereum.org/EIPS/eip-1155 Originally based on code by Enjin: https://github.com/enjin/erc-1155",
    "methods": {
      "balanceOf(address,uint256)": {
        "details": "Get the specified address' balance for token with specified ID.",
        "params": {
          "id": "ID of the token",
          "owner": "The address of the token holder"
        },
        "return": "The owner's balance of the token type requested"
      },
      "balanceOfBatch(address[],uint256[])": {
        "details": "Get the balance of multiple account/token pairs",
        "params": {
          "ids": "IDs of the tokens",
          "owners": "The addresses of the token holders"
        },
        "return": "Balances for each owner and token id pair"
      },
      "isApprovedForAll(address,address)": {
        "params": {
          "operator": "Address of authorized operator",
          "owner": "The owner of the Tokens"
        },
        "return": "True if the operator is approved, false if not"
      },
      "safeBatchTransferFrom(address,address,uint256[],uint256[],bytes)": {
        "details": "Transfers `values` amount(s) of `ids` from the `from` address to the `to` address specified. Caller must be approved to manage the tokens being transferred out of the `from` account. If `to` is a smart contract, will call `onERC1155BatchReceived` on `to` and act appropriately.",
        "params": {
          "data": "Data forwarded to `onERC1155Received` if `to` is a contract receiver",
          "from": "Source address",
          "ids": "IDs of each token type",
          "to": "Target address",
          "values": "Transfer amounts per token type"
        }
      },
      "safeTransferFrom(address,address,uint256,uint256,bytes)": {
        "details": "Transfers `value` amount of an `id` from the `from` address to the `to` address specified. Caller must be approved to manage the tokens being transferred out of the `from` account. If `to` is a smart contract, will call `onERC1155Received` on `to` and act appropriately.",
        "params": {
          "data": "Data forwarded to `onERC1155Received` if `to` is a contract receiver",
          "from": "Source address",
          "id": "ID of the token type",
          "to": "Target address",
          "value": "Transfer amount"
        }
      },
      "setApprovalForAll(address,bool)": {
        "details": "Sets or unsets the approval of a given operator An operator is allowed to transfer all tokens of the sender on their behalf",
        "params": {
          "approved": "representing the status of the approval to be set",
          "operator": "address to set the approval"
        }
      },
      "supportsInterface(bytes4)": {
        "details": "See `IERC165.supportsInterface`.     * Time complexity O(1), guaranteed to always use less than 30 000 gas."
      }
    },
    "title": "Standard ERC1155 token"
  },
  "userdoc": {
    "methods": {
      "isApprovedForAll(address,address)": {
        "notice": "Queries the approval status of an operator for a given owner."
      }
    }
  }
}