{
  "contractName": "FixedProductMarketMakerFactory",
  "abi": [
    {
      "constant": false,
      "inputs": [
        {
          "name": "userAddress",
          "type": "address"
        },
        {
          "name": "functionSignature",
          "type": "bytes"
        },
        {
          "name": "sigR",
          "type": "bytes32"
        },
        {
          "name": "sigS",
          "type": "bytes32"
        },
        {
          "name": "sigV",
          "type": "uint8"
        }
      ],
      "name": "executeMetaTransaction",
      "outputs": [
        {
          "name": "",
          "type": "bytes"
        }
      ],
      "payable": true,
      "stateMutability": "payable",
      "type": "function"
    },
    {
      "constant": true,
      "inputs": [],
      "name": "implementationMaster",
      "outputs": [
        {
          "name": "",
          "type": "address"
        }
      ],
      "payable": false,
      "stateMutability": "view",
      "type": "function"
    },
    {
      "constant": true,
      "inputs": [
        {
          "name": "user",
          "type": "address"
        }
      ],
      "name": "getNonce",
      "outputs": [
        {
          "name": "nonce",
          "type": "uint256"
        }
      ],
      "payable": false,
      "stateMutability": "view",
      "type": "function"
    },
    {
      "inputs": [],
      "payable": false,
      "stateMutability": "nonpayable",
      "type": "constructor"
    },
    {
      "anonymous": false,
      "inputs": [
        {
          "indexed": true,
          "name": "creator",
          "type": "address"
        },
        {
          "indexed": false,
          "name": "fixedProductMarketMaker",
          "type": "address"
        },
        {
          "indexed": true,
          "name": "conditionalTokens",
          "type": "address"
        },
        {
          "indexed": true,
          "name": "collateralToken",
          "type": "address"
        },
        {
          "indexed": false,
          "name": "conditionIds",
          "type": "bytes32[]"
        },
        {
          "indexed": false,
          "name": "fee",
          "type": "uint256"
        }
      ],
      "name": "FixedProductMarketMakerCreation",
      "type": "event"
    },
    {
      "anonymous": false,
      "inputs": [
        {
          "indexed": true,
          "name": "funder",
          "type": "address"
        },
        {
          "indexed": false,
          "name": "amountsAdded",
          "type": "uint256[]"
        },
        {
          "indexed": false,
          "name": "sharesMinted",
          "type": "uint256"
        }
      ],
      "name": "FPMMFundingAdded",
      "type": "event"
    },
    {
      "anonymous": false,
      "inputs": [
        {
          "indexed": true,
          "name": "funder",
          "type": "address"
        },
        {
          "indexed": false,
          "name": "amountsRemoved",
          "type": "uint256[]"
        },
        {
          "indexed": false,
          "name": "collateralRemovedFromFeePool",
          "type": "uint256"
        },
        {
          "indexed": false,
          "name": "sharesBurnt",
          "type": "uint256"
        }
      ],
      "name": "FPMMFundingRemoved",
      "type": "event"
    },
    {
      "anonymous": false,
      "inputs": [
        {
          "indexed": true,
          "name": "buyer",
          "type": "address"
        },
        {
          "indexed": false,
          "name": "investmentAmount",
          "type": "uint256"
        },
        {
          "indexed": false,
          "name": "feeAmount",
          "type": "uint256"
        },
        {
          "indexed": true,
          "name": "outcomeIndex",
          "type": "uint256"
        },
        {
          "indexed": false,
          "name": "outcomeTokensBought",
          "type": "uint256"
        }
      ],
      "name": "FPMMBuy",
      "type": "event"
    },
    {
      "anonymous": false,
      "inputs": [
        {
          "indexed": true,
          "name": "seller",
          "type": "address"
        },
        {
          "indexed": false,
          "name": "returnAmount",
          "type": "uint256"
        },
        {
          "indexed": false,
          "name": "feeAmount",
          "type": "uint256"
        },
        {
          "indexed": true,
          "name": "outcomeIndex",
          "type": "uint256"
        },
        {
          "indexed": false,
          "name": "outcomeTokensSold",
          "type": "uint256"
        }
      ],
      "name": "FPMMSell",
      "type": "event"
    },
    {
      "anonymous": false,
      "inputs": [
        {
          "indexed": true,
          "name": "target",
          "type": "address"
        },
        {
          "indexed": false,
          "name": "clone",
          "type": "address"
        }
      ],
      "name": "CloneCreated",
      "type": "event"
    },
    {
      "anonymous": false,
      "inputs": [
        {
          "indexed": false,
          "name": "userAddress",
          "type": "address"
        },
        {
          "indexed": false,
          "name": "relayerAddress",
          "type": "address"
        },
        {
          "indexed": false,
          "name": "functionSignature",
          "type": "bytes"
        }
      ],
      "name": "MetaTransactionExecuted",
      "type": "event"
    },
    {
      "constant": false,
      "inputs": [
        {
          "name": "consData",
          "type": "bytes"
        }
      ],
      "name": "cloneConstructor",
      "outputs": [],
      "payable": false,
      "stateMutability": "nonpayable",
      "type": "function"
    },
    {
      "constant": false,
      "inputs": [
        {
          "name": "conditionalTokens",
          "type": "address"
        },
        {
          "name": "collateralToken",
          "type": "address"
        },
        {
          "name": "conditionIds",
          "type": "bytes32[]"
        },
        {
          "name": "fee",
          "type": "uint256"
        }
      ],
      "name": "createFixedProductMarketMaker",
      "outputs": [
        {
          "name": "",
          "type": "address"
        }
      ],
      "payable": false,
      "stateMutability": "nonpayable",
      "type": "function"
    }
  ],
  "bytecode": "0x60806040523480156200001157600080fd5b506040518060400160405280600481526020017f6e616d65000000000000000000000000000000000000000000000000000000008152506040518060400160405280600781526020017f76657273696f6e000000000000000000000000000000000000000000000000008152506040518060800160405280604f8152602001620058b2604f9139805190602001208280519060200120828051906020012030620000c06200017160201b60201c565b60001b60405160200180868152602001858152602001848152602001836001600160a01b03166001600160a01b03168152602001828152602001955050505050506040516020818303038152906040528051906020012060008190555050506040516200012d9062000176565b604051809103906000f0801580156200014a573d6000803e3d6000fd5b50601080546001600160a01b0319166001600160a01b039290921691909117905562000184565b600090565b613897806200201b83390190565b611e8780620001946000396000f3fe60806040526004361061004a5760003560e01c80630c53c51c1461004f57806312b4d20c1461018657806323f66e47146101b75780632d0335ab1461024b57806352e831dd14610290575b600080fd5b610111600480360360a081101561006557600080fd5b6001600160a01b038235169190810190604081016020820135600160201b81111561008f57600080fd5b8201836020820111156100a157600080fd5b803590602001918460018302840111600160201b831117156100c257600080fd5b91908080601f016020809104026020016040519081016040528093929190818152602001838380828437600092019190915250929550508235935050506020810135906040013560ff1661030d565b6040805160208082528351818301528351919283929083019185019080838360005b8381101561014b578181015183820152602001610133565b50505050905090810190601f1680156101785780820380516001836020036101000a031916815260200191505b509250505060405180910390f35b34801561019257600080fd5b5061019b610699565b604080516001600160a01b039092168252519081900360200190f35b3480156101c357600080fd5b5061019b600480360360808110156101da57600080fd5b6001600160a01b038235811692602081013590911691810190606081016040820135600160201b81111561020d57600080fd5b82018360208201111561021f57600080fd5b803590602001918460208302840111600160201b8311171561024057600080fd5b9193509150356106a8565b34801561025757600080fd5b5061027e6004803603602081101561026e57600080fd5b50356001600160a01b031661080a565b60408051918252519081900360200190f35b34801561029c57600080fd5b5061030b600480360360208110156102b357600080fd5b810190602081018135600160201b8111156102cd57600080fd5b8201836020820111156102df57600080fd5b803590602001918460018302840111600160201b8311171561030057600080fd5b509092509050610825565b005b6060600061031a86610b9e565b90506000356001600160e01b0319908116908216141561036b5760405162461bcd60e51b815260040180806020018281038252603d815260200180611db3603d913960400191505060405180910390fd5b610373611c43565b50604080516060810182526001600160a01b038916600081815260016020908152908490205483528201529081018790526103b18882888888610bbe565b6103ec5760405162461bcd60e51b8152600401808060200182810382526021815260200180611e106021913960400191505060405180910390fd5b6001600160a01b0388166000908152600160208190526040909120546104179163ffffffff610cab16565b600160008a6001600160a01b03166001600160a01b031681526020019081526020016000208190555060006060306001600160a01b0316898b6040516020018083805190602001908083835b602083106104825780518252601f199092019160209182019101610463565b6001836020036101000a038019825116818451168082178552505050505050905001826001600160a01b03166001600160a01b031660601b8152601401925050506040516020818303038152906040526040518082805190602001908083835b602083106105015780518252601f1990920191602091820191016104e2565b6001836020036101000a0380198251168184511680821785525050505050509050019150506000604051808303816000865af19150503d8060008114610563576040519150601f19603f3d011682016040523d82523d6000602084013e610568565b606091505b5091509150816105bf576040805162461bcd60e51b815260206004820152601c60248201527f46756e6374696f6e2063616c6c206e6f74207375636365737366756c00000000604482015290519081900360640190fd5b7f5845892132946850460bff5a0083f71031bc5bf9aadcd40f1de79423eac9b10b8a338b60405180846001600160a01b03166001600160a01b03168152602001836001600160a01b03166001600160a01b0316815260200180602001828103825283818151815260200191508051906020019080838360005b83811015610650578181015183820152602001610638565b50505050905090810190601f16801561067d5780820380516001836020036101000a031916815260200191505b5094505050505060405180910390a19998505050505050505050565b6010546001600160a01b031681565b600080610754601060009054906101000a90046001600160a01b0316888888888860405160200180866001600160a01b03166001600160a01b03168152602001856001600160a01b03166001600160a01b03168152602001806020018381526020018281038252858582818152602001925060200280828437600081840152601f19601f8201169050808301925050509650505050505050604051602081830303815290604052610d0c565b9050856001600160a01b0316876001600160a01b0316610772610edb565b6001600160a01b03167f92e0912d3d7f3192cad5c7ae3b47fb97f9c465c1dd12a5c24fd901ddb3905f438489898960405180856001600160a01b03166001600160a01b03168152602001806020018381526020018281038252858582818152602001925060200280828437600083820152604051601f909101601f191690920182900397509095505050505050a49695505050505050565b6001600160a01b031660009081526001602052604090205490565b600080606060008585608081101561083c57600080fd5b6001600160a01b038235811692602081013590911691810190606081016040820135600160201b81111561086f57600080fd5b82018360208201111561088157600080fd5b803590602001918460208302840111600160201b831117156108a257600080fd5b9190808060200260200160405190810160405280939291908181526020018383602002808284376000920182905250600560209081527fc01909ce2b517f8cd3a46ae0cfde9179f9b675cf633d3d84c8226585cc73c156805460ff199081166001908117909255630271189760e51b9093527f94c1faf9d5e90af124544bfc72afc17a3732e3b388c1402a1a5e262179784f9f805490931617909155600680546001600160a01b03808d166001600160a01b03199283161790925560078054928c16929091169190911790558451999d50979b50929950509135965061099395600895890194509250611c6d915050565b50600981905560085460408051828152602080840282010190915260019180156109c7578160200160208202803883390190505b5080516109dc91600b91602090910190611c6d565b5060005b600854811015610aa557600654600880546000926001600160a01b03169163d42dc0c29185908110610a0e57fe5b90600052602060002001546040518263ffffffff1660e01b81526004018082815260200191505060206040518083038186803b158015610a4d57600080fd5b505afa158015610a61573d6000803e3d6000fd5b505050506040513d6020811015610a7757600080fd5b5051600b805494820294919250829184908110610a9057fe5b600091825260209091200155506001016109e0565b5060018111610afb576040805162461bcd60e51b815260206004820152601860248201527f636f6e646974696f6e73206d7573742062652076616c69640000000000000000604482015290519081900360640190fd5b600854604080518281526020808402820101909152908015610b3157816020015b6060815260200190600190039081610b1c5790505b508051610b4691600c91602090910190611cb8565b50600854610b55906000610f39565b600d548114610b955760405162461bcd60e51b8152600401808060200182810382526022815260200180611e316022913960400191505060405180910390fd5b50505050505050565b6000815160001415610bb257506000610bb9565b5060208101515b919050565b6000806001610bd4610bcf8861100a565b6110d9565b84878760405160008152602001604052604051808581526020018460ff1660ff1681526020018381526020018281526020019450505050506020604051602081039080840390855afa158015610c2e573d6000803e3d6000fd5b5050604051601f1901519150506001600160a01b038116610c8a576040805162461bcd60e51b8152602060048201526011602482015270496e76616c6964207369676e617475726560781b604482015290519081900360640190fd5b866001600160a01b0316816001600160a01b03161491505095945050505050565b600082820183811015610d05576040805162461bcd60e51b815260206004820152601b60248201527f536166654d6174683a206164646974696f6e206f766572666c6f770000000000604482015290519081900360640190fd5b9392505050565b60006060826040516024018080602001828103825283818151815260200191508051906020019080838360005b83811015610d51578181015183820152602001610d39565b50505050905090810190601f168015610d7e5780820380516001836020036101000a031916815260200191505b5060408051601f1981840381018252928252602080820180516001600160e01b03166352e831dd60e01b17905281518351606382018082526082909201909516850190910190925295506060945090925090508015610de4576020820181803883390190505b507f3d3d606380380380913d393d73bebebebebebebebebebebebebebebebebebebe6020820152600160601b308102602d8301527f5af4602a57600080fd5b602d8060366000396000f3363d3d373d3d3d363d73be6041830152860260608201526e5af43d82803e903d91602b57fd5bf360881b6074820152905060005b8251811015610eb057828181518110610e7757fe5b602001015160f81c60f81b828260630181518110610e9157fe5b60200101906001600160f81b031916908160001a905350600101610e62565b5080516020820181816000f0945050506001600160a01b038316610ed357600080fd5b505092915050565b600033301415610f335760606000368080601f0160208091040260200160405190810160405280939291908181526020018383808284376000920191909152505050503601516001600160a01b03169150610f369050565b50335b90565b81610f7257600754600d90610f57906001600160a01b031683611125565b81546001810183556000928352602090922090910155611006565b8180600190039250506000600b8381548110610f8a57fe5b90600052602060002001549050600c8381548110610fa457fe5b600091825260208083209091018054600181018255908352908220018390555b8181101561100357610ffb84610ff68560088881548110610fe157fe5b9060005260206000200154856001901b611169565b610f39565b600101610fc4565b50505b5050565b6000604051806080016040528060438152602001611d7060439139805190602001208260000151836020015184604001516040518082805190602001908083835b6020831061106a5780518252601f19909201916020918201910161104b565b51815160001960209485036101000a019081169019919091161790526040805194909201849003842084820199909952838201979097526001600160a01b039095166060830152506080808201969096528351808203909601865260a001909252505081519101209050919050565b60006110e3611498565b82604051602001808061190160f01b81525060020183815260200182815260200192505050604051602081830303815290604052805190602001209050919050565b6040805160609390931b6bffffffffffffffffffffffff19166020808501919091526034808501939093528151808503909301835260549093019052805191012090565b6040805160208082018590528183018490528251808303840181526060909201909252805191012060009060ff81901c151582805b600080516020611df0833981519152600185089350600080516020611df08339815191526003600080516020611df08339815191528087880987090890506111e58161149e565b915080600080516020611df0833981519152838409141561119e5782801561120e575060028206155b806112255750821580156112255750600282066001145b1561123e5781600080516020611df08339815191520391505b8780156114755760fe81901c151593506001600160fe1b0316600080516020611df08339815191526003600080516020611df0833981519152808485098409089150600061128b8361149e565b905084801561129b575060028106155b806112b25750841580156112b25750600281066001145b156112c857600080516020611df0833981519152035b82600080516020611df08339815191528283091461132d576040805162461bcd60e51b815260206004820152601c60248201527f696e76616c696420706172656e7420636f6c6c656374696f6e20494400000000604482015290519081900360640190fd5b6000606060066001600160a01b031688878686604051602001808581526020018481526020018381526020018281526020019450505050506040516020818303038152906040526040518082805190602001908083835b602083106113a35780518252601f199092019160209182019101611384565b6001836020036101000a038019825116818451168082178552505050505050905001915050600060405180830381855afa9150503d8060008114611403576040519150601f19603f3d011682016040523d82523d6000602084013e611408565b606091505b50915091508161144e576040805162461bcd60e51b815260206004820152600c60248201526b1958d859190819985a5b195960a21b604482015290519081900360640190fd5b80806020019051604081101561146357600080fd5b50805160209091015190985095505050505b600283066001141561148b57600160fe1b851894505b5092979650505050505050565b60005490565b6000600080516020611df0833981519152808380099150808283098181820990508181840992508183850993508184840992508183840990508181820982818309905082818209905082818209905082818309915082828609945082858609915082828309915082828509935082848509915082828309915082828309915082828509915082828609945082858609915082828309915082828309915082828609915082828509935082848609945082858609915082828309915082828509935082848509915082828309905082818209905082818209905082818309915082828609945082858509935082848509915082828309915082828309915082828609945082858609915082828309915082828609915082828309915082828309915082828609915082828509935082848509915082828309905082818209905082818309905082818509905082818209905082818209905082818209905082818209905082818309915082828609945082858609915082828609915082828509935082848509915082828509915082828309915082828309905082818309905082818209838182099050838182099050838182099050838182099050838183099150508281830991508282860994508285850993508284850991508282860994508285850993508284860994508285850993508284860994508285860991508282860991508282830991508282850993508284850991508282830991508282860994508285850993508284850991508282850991508282860994508285850993508284860994508285850993508284850991508282830991508282850991508282860994508285860991508282860991508282850993508284860994508285850993508284860994508285850993508284850991508282850991508282830991508282860994508285850993508284850991508282850991508282830991508282860994508285860991508282830990508281820990508281830990508281860990508281820990508281820990508281820990508281820990508281830991508282850993508284860994508285850993508284860994508285860991508282860991508282830991508282830991508282830991508282860991508282850993508284850991508282850991508282830991508282860994508285860991508282860991508282850993508284860994508285860991508282830991508282850993508284860994508285860991508282850993508284860994508285850993508284850991508282850991508282860994508285850993508284850991508282850991508282830991508282830991508282860994508285860991508282830991508282830991508282860991508282850993508284860994508285860991508282860990508281820990508281820990508281830991508282850993508284850991508282860994508285850993508284860994508285850993508284860994508285850993508284850991508282850990508281850991508282830991508282830991508282820991505081818509935081848409925081838509935081848409925081838509935081848509905081818509905081818409925050808284099250808384099250808384099250808384099250808384099250808384099250808384099250808384099250808384099250808384099250808384099250808384099250808384099250808384099250808384099250808384099250808384099250808384099250808384099250808384099250808384099250808384099250808384099250808384099250808384099250808384099250808384099250808384099250808384099250808384099250808384099250808384099250808384099250808384099250808384099250808384099250808384099250808384099250808384099250808384099250808384099250808384099250808384099250808384099250808384099250808384099250808384099250808384099250808384099250808384099250808384099250808384099250808384099250808384099250808384099250808384099250808384099250808384099250808384099250808384099250808384099250808384099250808384099250808384099250808384099250808384099250808384099250808384099250808384099250808384099250808384099250808384099250808384099250808384099250808384099250808384099250808384099250808384099250808384099250808384099250808384099250808384099250808384099250808384099250808384099250808384099250808384099250808384099250808384099250808384099250808384099250808384099250808384099250808384099250808384099250808384099250808384099250808384099250808384099250808384099250808384099250808384099250808384099250808384099250808384099250808384099250808384099250808384099250808384099250808384099250808384099250808384099250808384099250808384099250808384099250808384099250808384099250808384099250808384099250808384099250808384099250808384099250808384099250808384099250808384099250808384099250808384099250808383099392505050565b60405180606001604052806000815260200160006001600160a01b03168152602001606081525090565b828054828255906000526020600020908101928215611ca8579160200282015b82811115611ca8578251825591602001919060010190611c8d565b50611cb4929150611d11565b5090565b828054828255906000526020600020908101928215611d05579160200282015b82811115611d055782518051611cf5918491602090910190611c6d565b5091602001919060010190611cd8565b50611cb4929150611d2b565b610f3691905b80821115611cb45760008155600101611d17565b610f3691905b80821115611cb4576000611d458282611d4e565b50600101611d31565b5080546000825590600052602060002090810190611d6c9190611d11565b5056fe4d6574615472616e73616374696f6e2875696e74323536206e6f6e63652c616464726573732066726f6d2c62797465732066756e6374696f6e5369676e61747572652966756e6374696f6e5369676e61747572652063616e206e6f74206265206f6620657865637574654d6574615472616e73616374696f6e206d6574686f6430644e72e131a029b85045b68181585d97816a916871ca8d3c208c16d87cfd475369676e657220616e64207369676e617475726520646f206e6f74206d61746368706f736974696f6e2049447320636f6e737472756374696f6e206661696c6564213fa265627a7a72305820436561681be4b0f8292430df5955241e48ccf8ba05bb3a05e545da433a14a72a64736f6c634300050a0032600460809081527f6e616d650000000000000000000000000000000000000000000000000000000060a052600760c09081527f76657273696f6e0000000000000000000000000000000000000000000000000060e052610180604052604f610100818152906200384861012039805190602001208280519060200120828051906020012030620000946200015360201b60201c565b604080516020808201979097528082019590955260608501939093526001600160a01b03909116608084015260a0808401919091528151808403909101815260c090920190528051910120600055506200011990507f01ffc9a7000000000000000000000000000000000000000000000000000000006001600160e01b036200015816565b6200014d7f4e2312e0000000000000000000000000000000000000000000000000000000006001600160e01b036200015816565b62000227565b600090565b7fffffffff000000000000000000000000000000000000000000000000000000008082161415620001ea57604080517f08c379a000000000000000000000000000000000000000000000000000000000815260206004820152601c60248201527f4552433136353a20696e76616c696420696e7465726661636520696400000000604482015290519081900360640190fd5b7fffffffff00000000000000000000000000000000000000000000000000000000166000908152600560205260409020805460ff19166001179055565b61361180620002376000396000f3fe6080604052600436106101815760003560e01c80639003adfe116100d1578063d5f15a461161008a578063ddca3f4311610064578063ddca3f4314610850578063e03031a614610865578063f23a6e611461088f578063f55c79d01461092f57610181565b8063d5f15a4614610769578063d8c55af7146107eb578063dd62ed3e1461081557610181565b80639003adfe14610546578063a457c2d71461055b578063a9059cbb14610594578063b2016bd4146105cd578063bc197c81146105e2578063d3c9727c1461073357610181565b806323b872dd1161013e57806340993b261161011857806340993b261461047c5780634343116a146104b25780635bd9e299146104e257806370a082311461051357610181565b806323b872dd146103cd5780632d0335ab14610410578063395093511461044357610181565b806301ffc9a714610186578063095ea7b3146101ce5780630c53c51c14610207578063164e68de1461033e57806316dbd7761461037357806318160ddd146103b8575b600080fd5b34801561019257600080fd5b506101ba600480360360208110156101a957600080fd5b50356001600160e01b03191661095f565b604080519115158252519081900360200190f35b3480156101da57600080fd5b506101ba600480360360408110156101f157600080fd5b506001600160a01b038135169060200135610982565b6102c9600480360360a081101561021d57600080fd5b6001600160a01b038235169190810190604081016020820135600160201b81111561024757600080fd5b82018360208201111561025957600080fd5b803590602001918460018302840111600160201b8311171561027a57600080fd5b91908080601f016020809104026020016040519081016040528093929190818152602001838380828437600092019190915250929550508235935050506020810135906040013560ff166109a0565b6040805160208082528351818301528351919283929083019185019080838360005b838110156103035781810151838201526020016102eb565b50505050905090810190601f1680156103305780820380516001836020036101000a031916815260200191505b509250505060405180910390f35b34801561034a57600080fd5b506103716004803603602081101561036157600080fd5b50356001600160a01b0316610d2c565b005b34801561037f57600080fd5b506103a66004803603602081101561039657600080fd5b50356001600160a01b0316610e9a565b60408051918252519081900360200190f35b3480156103c457600080fd5b506103a6610eee565b3480156103d957600080fd5b506101ba600480360360608110156103f057600080fd5b506001600160a01b03813581169160208101359091169060400135610ef4565b34801561041c57600080fd5b506103a66004803603602081101561043357600080fd5b50356001600160a01b0316610f69565b34801561044f57600080fd5b506101ba6004803603604081101561046657600080fd5b506001600160a01b038135169060200135610f84565b34801561048857600080fd5b506103716004803603606081101561049f57600080fd5b5080359060208101359060400135610fd8565b3480156104be57600080fd5b506103a6600480360360408110156104d557600080fd5b508035906020013561135f565b3480156104ee57600080fd5b506104f7611536565b604080516001600160a01b039092168252519081900360200190f35b34801561051f57600080fd5b506103a66004803603602081101561053657600080fd5b50356001600160a01b0316611545565b34801561055257600080fd5b506103a6611560565b34801561056757600080fd5b506101ba6004803603604081101561057e57600080fd5b506001600160a01b03813516906020013561157e565b3480156105a057600080fd5b506101ba600480360360408110156105b757600080fd5b506001600160a01b0381351690602001356115d2565b3480156105d957600080fd5b506104f76115e6565b3480156105ee57600080fd5b50610716600480360360a081101561060557600080fd5b6001600160a01b038235811692602081013590911691810190606081016040820135600160201b81111561063857600080fd5b82018360208201111561064a57600080fd5b803590602001918460208302840111600160201b8311171561066b57600080fd5b919390929091602081019035600160201b81111561068857600080fd5b82018360208201111561069a57600080fd5b803590602001918460208302840111600160201b831117156106bb57600080fd5b919390929091602081019035600160201b8111156106d857600080fd5b8201836020820111156106ea57600080fd5b803590602001918460018302840111600160201b8311171561070b57600080fd5b5090925090506115f5565b604080516001600160e01b03199092168252519081900360200190f35b34801561073f57600080fd5b506103716004803603606081101561075657600080fd5b5080359060208101359060400135611639565b34801561077557600080fd5b506103716004803603604081101561078c57600080fd5b81359190810190604081016020820135600160201b8111156107ad57600080fd5b8201836020820111156107bf57600080fd5b803590602001918460208302840111600160201b831117156107e057600080fd5b5090925090506118fb565b3480156107f757600080fd5b506103a66004803603602081101561080e57600080fd5b5035611fed565b34801561082157600080fd5b506103a66004803603604081101561083857600080fd5b506001600160a01b038135811691602001351661200b565b34801561085c57600080fd5b506103a6612036565b34801561087157600080fd5b506103716004803603602081101561088857600080fd5b503561203c565b34801561089b57600080fd5b50610716600480360360a08110156108b257600080fd5b6001600160a01b03823581169260208101359091169160408201359160608101359181019060a081016080820135600160201b8111156108f157600080fd5b82018360208201111561090357600080fd5b803590602001918460018302840111600160201b8311171561092457600080fd5b5090925090506123be565b34801561093b57600080fd5b506103a66004803603604081101561095257600080fd5b50803590602001356123ed565b6001600160e01b0319811660009081526005602052604090205460ff165b919050565b600061099661098f61258a565b84846125e8565b5060015b92915050565b606060006109ad866126d4565b90506000356001600160e01b031990811690821614156109fe5760405162461bcd60e51b815260040180806020018281038252603d8152602001806134c2603d913960400191505060405180910390fd5b610a0661340f565b50604080516060810182526001600160a01b03891660008181526001602090815290849020548352820152908101879052610a4488828888886126f0565b610a7f5760405162461bcd60e51b81526004018080602001828103825260218152602001806135526021913960400191505060405180910390fd5b6001600160a01b038816600090815260016020819052604090912054610aaa9163ffffffff6127dd16565b600160008a6001600160a01b03166001600160a01b031681526020019081526020016000208190555060006060306001600160a01b0316898b6040516020018083805190602001908083835b60208310610b155780518252601f199092019160209182019101610af6565b6001836020036101000a038019825116818451168082178552505050505050905001826001600160a01b03166001600160a01b031660601b8152601401925050506040516020818303038152906040526040518082805190602001908083835b60208310610b945780518252601f199092019160209182019101610b75565b6001836020036101000a0380198251168184511680821785525050505050509050019150506000604051808303816000865af19150503d8060008114610bf6576040519150601f19603f3d011682016040523d82523d6000602084013e610bfb565b606091505b509150915081610c52576040805162461bcd60e51b815260206004820152601c60248201527f46756e6374696f6e2063616c6c206e6f74207375636365737366756c00000000604482015290519081900360640190fd5b7f5845892132946850460bff5a0083f71031bc5bf9aadcd40f1de79423eac9b10b8a338b60405180846001600160a01b03166001600160a01b03168152602001836001600160a01b03166001600160a01b0316815260200180602001828103825283818151815260200191508051906020019080838360005b83811015610ce3578181015183820152602001610ccb565b50505050905090810190601f168015610d105780820380516001836020036101000a031916815260200191505b5094505050505060405180910390a19998505050505050505050565b6000610d36610eee565b610d51610d4284611545565b600a549063ffffffff61283716565b81610d5857fe5b6001600160a01b0384166000908152600e602052604081205492909104925090610d8990839063ffffffff61289016565b90508015610e95576001600160a01b0383166000908152600e60205260409020829055600f54610dbf908263ffffffff6127dd16565b600f556007546040805163a9059cbb60e01b81526001600160a01b038681166004830152602482018590529151919092169163a9059cbb9160448083019260209291908290030181600087803b158015610e1857600080fd5b505af1158015610e2c573d6000803e3d6000fd5b505050506040513d6020811015610e4257600080fd5b5051610e95576040805162461bcd60e51b815260206004820152601a60248201527f7769746864726177616c207472616e73666572206661696c6564000000000000604482015290519081900360640190fd5b505050565b600080610ea5610eee565b610eb1610d4285611545565b81610eb857fe5b6001600160a01b0385166000908152600e60205260409020549190049150610ee790829063ffffffff61289016565b9392505050565b60045490565b6000610f018484846128ed565b610f5f84610f0d61258a565b6001600160a01b0387166000908152600360205260408120610f5a91879190610f3461258a565b6001600160a01b031681526020810191909152604001600020549063ffffffff61289016565b6125e8565b5060019392505050565b6001600160a01b031660009081526001602052604090205490565b6000610996610f9161258a565b84610f5a8560036000610fa261258a565b6001600160a01b03908116825260208083019390935260409182016000908120918c16815292529020549063ffffffff6127dd16565b6000610fe484846123ed565b90508181101561103b576040805162461bcd60e51b815260206004820152601e60248201527f6d696e696d756d2062757920616d6f756e74206e6f7420726561636865640000604482015290519081900360640190fd5b6007546001600160a01b03166323b872dd61105461258a565b604080516001600160e01b031960e085901b1681526001600160a01b039092166004830152306024830152604482018890525160648083019260209291908290030181600087803b1580156110a857600080fd5b505af11580156110bc573d6000803e3d6000fd5b505050506040513d60208110156110d257600080fd5b505161111c576040805162461bcd60e51b815260206004820152601460248201527318dbdcdd081d1c985b9cd9995c8819985a5b195960621b604482015290519081900360640190fd5b6000670de0b6b3a764000061113c6009548761283790919063ffffffff16565b8161114357fe5b04905061115b81600a546127dd90919063ffffffff16565b600a556000611170868363ffffffff61289016565b6007546006546040805163095ea7b360e01b81526001600160a01b03928316600482015260248101859052905193945091169163095ea7b3916044808201926020929091908290030181600087803b1580156111cb57600080fd5b505af11580156111df573d6000803e3d6000fd5b505050506040513d60208110156111f557600080fd5b5051611248576040805162461bcd60e51b815260206004820152601a60248201527f617070726f76616c20666f722073706c697473206661696c6564000000000000604482015290519081900360640190fd5b61125181612a3c565b6006546001600160a01b031663f242432a3061126b61258a565b600d898154811061127857fe5b6000918252602082200154604080516001600160e01b031960e088901b1681526001600160a01b03958616600482015293909416602484015260448301526064820188905260a0608483015260a48201819052915160e4808301939282900301818387803b1580156112e957600080fd5b505af11580156112fd573d6000803e3d6000fd5b505050508461130a61258a565b604080518981526020810186905280820187905290516001600160a01b0392909216917f4f62630f51608fc8a7603a9391a5101e58bd7c276139366fc107dc3b67c3dcf89181900360600190a3505050505050565b600d5460009082106113b0576040805162461bcd60e51b81526020600482015260156024820152740d2dcecc2d8d2c840deeae8c6dedaca40d2dcc8caf605b1b604482015290519081900360640190fd5b60606113ba612bcb565b905060006113db600954670de0b6b3a764000061289090919063ffffffff16565b6113f386670de0b6b3a764000063ffffffff61283716565b816113fa57fe5b049050600082858151811061140b57fe5b602002602001015190506000611432670de0b6b3a76400008361283790919063ffffffff16565b905060005b845181101561149d5786811461149557600085828151811061145557fe5b60200260200101519050611491611475868361289090919063ffffffff16565b611485858463ffffffff61283716565b9063ffffffff612d9816565b9250505b600101611437565b50600081116114f3576040805162461bcd60e51b815260206004820152601b60248201527f6d7573742068617665206e6f6e2d7a65726f2062616c616e6365730000000000604482015290519081900360640190fd5b61152b8261151f61151284670de0b6b3a764000063ffffffff612d9816565b869063ffffffff6127dd16565b9063ffffffff61289016565b979650505050505050565b6006546001600160a01b031681565b6001600160a01b031660009081526002602052604090205490565b6000611579600f54600a5461289090919063ffffffff16565b905090565b600061099661158b61258a565b84610f5a856003600061159c61258a565b6001600160a01b03908116825260208083019390935260409182016000908120918c16815292529020549063ffffffff61289016565b60006109966115df61258a565b84846128ed565b6007546001600160a01b031681565b60006001600160a01b0389163014801561161657506001600160a01b038816155b15611629575063bc197c8160e01b61162d565b5060005b98975050505050505050565b6000611645848461135f565b90508181111561169c576040805162461bcd60e51b815260206004820152601c60248201527f6d6178696d756d2073656c6c20616d6f756e7420657863656564656400000000604482015290519081900360640190fd5b6006546001600160a01b031663f242432a6116b561258a565b30600d87815481106116c357fe5b6000918252602082200154604080516001600160e01b031960e088901b1681526001600160a01b03958616600482015293909416602484015260448301526064820186905260a0608483015260a48201819052915160e4808301939282900301818387803b15801561173457600080fd5b505af1158015611748573d6000803e3d6000fd5b50505050600061176b600954670de0b6b3a764000061289090919063ffffffff16565b60095461177f90879063ffffffff61283716565b8161178657fe5b04905061179e81600a546127dd90919063ffffffff16565b600a5560006117b3868363ffffffff6127dd16565b90506117be81612dc8565b6007546001600160a01b031663a9059cbb6117d761258a565b886040518363ffffffff1660e01b815260040180836001600160a01b03166001600160a01b0316815260200182815260200192505050602060405180830381600087803b15801561182757600080fd5b505af115801561183b573d6000803e3d6000fd5b505050506040513d602081101561185157600080fd5b505161189d576040805162461bcd60e51b81526020600482015260166024820152751c995d1d5c9b881d1c985b9cd9995c8819985a5b195960521b604482015290519081900360640190fd5b846118a661258a565b604080518981526020810186905280820187905290516001600160a01b0392909216917fadcf2a240ed9300d681d9a3f5382b6c1beed1b7e46643e0c7b42cbe6e2d766b49181900360600190a3505050505050565b60008311611950576040805162461bcd60e51b815260206004820152601860248201527f66756e64696e67206d757374206265206e6f6e2d7a65726f0000000000000000604482015290519081900360640190fd5b600d54604080518281526020808402820101909152606091801561197e578160200160208202803883390190505b509050600061198b610eee565b905060008115611aab5783156119d25760405162461bcd60e51b81526004018080602001828103825260328152602001806134ff6032913960400191505060405180910390fd5b60606119dc612bcb565b90506000805b8251811015611a185760008382815181106119f957fe5b6020026020010151905080831015611a0f578092505b506001016119e2565b5060005b8251811015611a8857600082611a4e858481518110611a3757fe5b60200260200101518c61283790919063ffffffff16565b81611a5557fe5b049050611a688a8263ffffffff61289016565b878381518110611a7457fe5b602090810291909101015250600101611a1c565b5080611a9a898663ffffffff61283716565b81611aa157fe5b0492505050611bfa565b8315611bf757600d548414611af9576040805162461bcd60e51b815260206004820152600f60248201526e3434b73a103632b733ba341037b33360891b604482015290519081900360640190fd5b6000805b85811015611b31576000878783818110611b1357fe5b90506020020135905080831015611b28578092505b50600101611afd565b5060005b85811015611bf457600082611b65898985818110611b4f57fe5b905060200201358b61283790919063ffffffff16565b81611b6c57fe5b04905060008111611bc4576040805162461bcd60e51b815260206004820152601e60248201527f6d7573742068696e7420612076616c696420646973747269627574696f6e0000604482015290519081900360640190fd5b611bd4898263ffffffff61289016565b868381518110611be057fe5b602090810291909101015250600101611b35565b50505b50845b6007546001600160a01b03166323b872dd611c1361258a565b604080516001600160e01b031960e085901b1681526001600160a01b039092166004830152306024830152604482018a90525160648083019260209291908290030181600087803b158015611c6757600080fd5b505af1158015611c7b573d6000803e3d6000fd5b505050506040513d6020811015611c9157600080fd5b5051611ce4576040805162461bcd60e51b815260206004820152601760248201527f66756e64696e67207472616e73666572206661696c6564000000000000000000604482015290519081900360640190fd5b6007546006546040805163095ea7b360e01b81526001600160a01b039283166004820152602481018a90529051919092169163095ea7b39160448083019260209291908290030181600087803b158015611d3d57600080fd5b505af1158015611d51573d6000803e3d6000fd5b505050506040513d6020811015611d6757600080fd5b5051611dba576040805162461bcd60e51b815260206004820152601a60248201527f617070726f76616c20666f722073706c697473206661696c6564000000000000604482015290519081900360640190fd5b611dc386612a3c565b611dd4611dce61258a565b82612f3f565b6006546001600160a01b0316632eb2c2d630611dee61258a565b600d876040518563ffffffff1660e01b815260040180856001600160a01b03166001600160a01b03168152602001846001600160a01b03166001600160a01b031681526020018060200180602001806020018481038452868181548152602001915080548015611e7d57602002820191906000526020600020905b815481526020019060010190808311611e69575b50508481038352855181528551602091820191808801910280838360005b83811015611eb3578181015183820152602001611e9b565b50505050905001848103825260008152602001602001975050505050505050600060405180830381600087803b158015611eec57600080fd5b505af1158015611f00573d6000803e3d6000fd5b506000925050505b8351811015611f5657611f37848281518110611f2057fe5b60200260200101518861289090919063ffffffff16565b848281518110611f4357fe5b6020908102919091010152600101611f08565b50611f5f61258a565b6001600160a01b03167fec2dc3e5a3bb9aa0a1deb905d2bd23640d07f107e6ceb484024501aad964a95184836040518080602001838152602001828103825284818151815260200191508051906020019060200280838360005b83811015611fd1578181015183820152602001611fb9565b50505050905001935050505060405180910390a2505050505050565b60088181548110611ffa57fe5b600091825260209091200154905081565b6001600160a01b03918216600090815260036020908152604080832093909416825291909152205490565b60095481565b6060612046612bcb565b905060608151604051908082528060200260200182016040528015612075578160200160208202803883390190505b5090506000612082610eee565b905060005b83518110156120de57816120b7868684815181106120a157fe5b602002602001015161283790919063ffffffff16565b816120be57fe5b048382815181106120cb57fe5b6020908102919091010152600101612087565b50600754604080516370a0823160e01b815230600482015290516000926001600160a01b0316916370a08231916024808301926020929190829003018186803b15801561212a57600080fd5b505afa15801561213e573d6000803e3d6000fd5b505050506040513d602081101561215457600080fd5b5051905061216961216361258a565b8661303d565b600754604080516370a0823160e01b815230600482015290516121ee926001600160a01b0316916370a08231916024808301926020929190829003018186803b1580156121b557600080fd5b505afa1580156121c9573d6000803e3d6000fd5b505050506040513d60208110156121df57600080fd5b5051829063ffffffff61289016565b6006549091506001600160a01b0316632eb2c2d63061220b61258a565b600d876040518563ffffffff1660e01b815260040180856001600160a01b03166001600160a01b03168152602001846001600160a01b03166001600160a01b03168152602001806020018060200180602001848103845286818154815260200191508054801561229a57602002820191906000526020600020905b815481526020019060010190808311612286575b50508481038352855181528551602091820191808801910280838360005b838110156122d05781810151838201526020016122b8565b50505050905001848103825260008152602001602001975050505050505050600060405180830381600087803b15801561230957600080fd5b505af115801561231d573d6000803e3d6000fd5b5050505061232961258a565b6001600160a01b03167f8b4b2c8ebd04c47fc8bce136a85df9b93fcb1f47c8aa296457d4391519d190e78483886040518080602001848152602001838152602001828103825285818151815260200191508051906020019060200280838360005b838110156123a257818101518382015260200161238a565b5050505090500194505050505060405180910390a25050505050565b60006001600160a01b0387163014156123df575063f23a6e6160e01b6123e3565b5060005b9695505050505050565b600d54600090821061243e576040805162461bcd60e51b81526020600482015260156024820152740d2dcecc2d8d2c840deeae8c6dedaca40d2dcc8caf605b1b604482015290519081900360640190fd5b6060612448612bcb565b90506000612483670de0b6b3a764000061246d6009548861283790919063ffffffff16565b8161247457fe5b8791900463ffffffff61289016565b9050600082858151811061249357fe5b6020026020010151905060006124ba670de0b6b3a76400008361283790919063ffffffff16565b905060005b8451811015612509578681146125015760008582815181106124dd57fe5b602002602001015190506124fd61147586836127dd90919063ffffffff16565b9250505b6001016124bf565b506000811161255f576040805162461bcd60e51b815260206004820152601b60248201527f6d7573742068617665206e6f6e2d7a65726f2062616c616e6365730000000000604482015290519081900360640190fd5b61152b61257a82670de0b6b3a764000063ffffffff612d9816565b61151f848663ffffffff6127dd16565b6000333014156125e25760606000368080601f0160208091040260200160405190810160405280939291908181526020018383808284376000920191909152505050503601516001600160a01b031691506125e59050565b50335b90565b6001600160a01b03831661262d5760405162461bcd60e51b81526004018080602001828103825260248152602001806135b96024913960400191505060405180910390fd5b6001600160a01b0382166126725760405162461bcd60e51b81526004018080602001828103825260228152602001806134a06022913960400191505060405180910390fd5b6001600160a01b03808416600081815260036020908152604080832094871680845294825291829020859055815185815291517f8c5be1e5ebec7d5bd14f71427d1e84f3dd0314c0f7b2291e5b200ac8c7c3b9259281900390910190a3505050565b60008151600014156126e85750600061097d565b506020015190565b60008060016127066127018861312b565b6131fa565b84878760405160008152602001604052604051808581526020018460ff1660ff1681526020018381526020018281526020019450505050506020604051602081039080840390855afa158015612760573d6000803e3d6000fd5b5050604051601f1901519150506001600160a01b0381166127bc576040805162461bcd60e51b8152602060048201526011602482015270496e76616c6964207369676e617475726560781b604482015290519081900360640190fd5b866001600160a01b0316816001600160a01b03161491505095945050505050565b600082820183811015610ee7576040805162461bcd60e51b815260206004820152601b60248201527f536166654d6174683a206164646974696f6e206f766572666c6f770000000000604482015290519081900360640190fd5b6000826128465750600061099a565b8282028284828161285357fe5b0414610ee75760405162461bcd60e51b81526004018080602001828103825260218152602001806135316021913960400191505060405180910390fd5b6000828211156128e7576040805162461bcd60e51b815260206004820152601e60248201527f536166654d6174683a207375627472616374696f6e206f766572666c6f770000604482015290519081900360640190fd5b50900390565b6001600160a01b0383166129325760405162461bcd60e51b81526004018080602001828103825260258152602001806135946025913960400191505060405180910390fd5b6001600160a01b0382166129775760405162461bcd60e51b815260040180806020018281038252602381526020018061343a6023913960400191505060405180910390fd5b612982838383613246565b6001600160a01b0383166000908152600260205260409020546129ab908263ffffffff61289016565b6001600160a01b0380851660009081526002602052604080822093909355908416815220546129e0908263ffffffff6127dd16565b6001600160a01b0380841660008181526002602090815260409182902094909455805185815290519193928716927fddf252ad1be2c89b69c2b068fc378daa952ba7f163c4a11628f55a4df523b3ef92918290030190a3505050565b600854600019015b60008112612bc7576060612a6e600b8381548110612a5e57fe5b90600052602060002001546133a5565b905060005b600c8381548110612a8057fe5b600091825260209091200154811015612bbc57600654600754600c80546001600160a01b03938416936372ce42759316919087908110612abc57fe5b906000526020600020018481548110612ad157fe5b906000526020600020015460088781548110612ae957fe5b906000526020600020015486896040518663ffffffff1660e01b815260040180866001600160a01b03166001600160a01b0316815260200185815260200184815260200180602001838152602001828103825284818151815260200191508051906020019060200280838360005b83811015612b6f578181015183820152602001612b57565b505050509050019650505050505050600060405180830381600087803b158015612b9857600080fd5b505af1158015612bac573d6000803e3d6000fd5b505060019092019150612a739050565b505060001901612a44565b5050565b606080600d80549050604051908082528060200260200182016040528015612bfd578160200160208202803883390190505b50905060005b600d54811015612c3a5730828281518110612c1a57fe5b6001600160a01b0390921660209283029190910190910152600101612c03565b50600654604080516313849cfd60e21b8152600481019182528351604482015283516001600160a01b0390931692634e1273f4928592600d92829160248101916064909101906020808801910280838360005b83811015612ca5578181015183820152602001612c8d565b505050509050018381038252848181548152602001915080548015612ce957602002820191906000526020600020905b815481526020019060010190808311612cd5575b505094505050505060006040518083038186803b158015612d0957600080fd5b505afa158015612d1d573d6000803e3d6000fd5b505050506040513d6000823e601f3d908101601f191682016040526020811015612d4657600080fd5b810190808051600160201b811115612d5d57600080fd5b82016020810184811115612d7057600080fd5b81518560208202830111600160201b82111715612d8c57600080fd5b50909550505050505090565b60008215612db757816001840381612dac57fe5b04600101905061099a565b818381612dc057fe5b049392505050565b60005b600854811015612bc7576060612de7600b8381548110612a5e57fe5b905060005b600c8381548110612df957fe5b600091825260209091200154811015612f3557600654600754600c80546001600160a01b0393841693639e7212ad9316919087908110612e3557fe5b906000526020600020018481548110612e4a57fe5b906000526020600020015460088781548110612e6257fe5b906000526020600020015486896040518663ffffffff1660e01b815260040180866001600160a01b03166001600160a01b0316815260200185815260200184815260200180602001838152602001828103825284818151815260200191508051906020019060200280838360005b83811015612ee8578181015183820152602001612ed0565b505050509050019650505050505050600060405180830381600087803b158015612f1157600080fd5b505af1158015612f25573d6000803e3d6000fd5b505060019092019150612dec9050565b5050600101612dcb565b6001600160a01b038216612f9a576040805162461bcd60e51b815260206004820152601f60248201527f45524332303a206d696e7420746f20746865207a65726f206164647265737300604482015290519081900360640190fd5b612fa660008383613246565b600454612fb9908263ffffffff6127dd16565b6004556001600160a01b038216600090815260026020526040902054612fe5908263ffffffff6127dd16565b6001600160a01b03831660008181526002602090815260408083209490945583518581529351929391927fddf252ad1be2c89b69c2b068fc378daa952ba7f163c4a11628f55a4df523b3ef9281900390910190a35050565b6001600160a01b0382166130825760405162461bcd60e51b81526004018080602001828103825260218152602001806135736021913960400191505060405180910390fd5b61308e82600083613246565b6001600160a01b0382166000908152600260205260409020546130b7908263ffffffff61289016565b6001600160a01b0383166000908152600260205260409020556004546130e3908263ffffffff61289016565b6004556040805182815290516000916001600160a01b038516917fddf252ad1be2c89b69c2b068fc378daa952ba7f163c4a11628f55a4df523b3ef9181900360200190a35050565b600060405180608001604052806043815260200161345d60439139805190602001208260000151836020015184604001516040518082805190602001908083835b6020831061318b5780518252601f19909201916020918201910161316c565b51815160001960209485036101000a019081169019919091161790526040805194909201849003842084820199909952838201979097526001600160a01b039095166060830152506080808201969096528351808203909601865260a001909252505081519101209050919050565b6000613204613409565b82604051602001808061190160f01b81525060020183815260200182815260200192505050604051602081830303815290604052805190602001209050919050565b6001600160a01b0383161561325e5761325e83610d2c565b6000613268610eee565b90506000811561329457600a548290613287908563ffffffff61283716565b8161328e57fe5b04613296565b825b90506001600160a01b03851615613304576001600160a01b0385166000908152600e60205260409020546132d0908263ffffffff61289016565b6001600160a01b0386166000908152600e6020526040902055600f546132fc908263ffffffff61289016565b600f5561331b565b600a54613317908263ffffffff6127dd16565b600a555b6001600160a01b03841615613387576001600160a01b0384166000908152600e6020526040902054613353908263ffffffff6127dd16565b6001600160a01b0385166000908152600e6020526040902055600f5461337f908263ffffffff6127dd16565b600f5561339e565b600a5461339a908263ffffffff61289016565b600a555b5050505050565b6060816040519080825280602002602001820160405280156133d1578160200160208202803883390190505b50905060005b8281101561340357806001901b8282815181106133f057fe5b60209081029190910101526001016133d7565b50919050565b60005490565b60405180606001604052806000815260200160006001600160a01b0316815260200160608152509056fe45524332303a207472616e7366657220746f20746865207a65726f20616464726573734d6574615472616e73616374696f6e2875696e74323536206e6f6e63652c616464726573732066726f6d2c62797465732066756e6374696f6e5369676e61747572652945524332303a20617070726f766520746f20746865207a65726f206164647265737366756e6374696f6e5369676e61747572652063616e206e6f74206265206f6620657865637574654d6574615472616e73616374696f6e206d6574686f6463616e6e6f742075736520646973747269627574696f6e2068696e7420616674657220696e697469616c2066756e64696e67536166654d6174683a206d756c7469706c69636174696f6e206f766572666c6f775369676e657220616e64207369676e617475726520646f206e6f74206d6174636845524332303a206275726e2066726f6d20746865207a65726f206164647265737345524332303a207472616e736665722066726f6d20746865207a65726f206164647265737345524332303a20617070726f76652066726f6d20746865207a65726f2061646472657373a265627a7a723058201e109ec86b8536dc25aa6c5fe605fcc0e8c481f8ecdc8e922223a738dd03ff6464736f6c634300050a0032454950373132446f6d61696e28737472696e67206e616d652c737472696e672076657273696f6e2c6164647265737320766572696679696e67436f6e74726163742c627974657333322073616c7429454950373132446f6d61696e28737472696e67206e616d652c737472696e672076657273696f6e2c6164647265737320766572696679696e67436f6e74726163742c627974657333322073616c7429",
  "source": "pragma solidity ^0.5.1;\n\nimport { IERC20 } from \"openzeppelin-solidity/contracts/token/ERC20/IERC20.sol\";\nimport { ConditionalTokens } from \"./conditional-tokens/ConditionalTokens.sol\";\nimport { CTHelpers } from \"./conditional-tokens/CTHelpers.sol\";\nimport { ConstructedCloneFactory } from \"@gnosis.pm/util-contracts/contracts/ConstructedCloneFactory.sol\";\nimport { FixedProductMarketMaker, FixedProductMarketMakerData } from \"./FixedProductMarketMaker.sol\";\nimport { ERC1155TokenReceiver } from \"./conditional-tokens/ERC1155/ERC1155TokenReceiver.sol\";\n\nimport { EIP712MetaTransaction } from './metatx/EIP712MetaTransaction.sol';\n\ncontract FixedProductMarketMakerFactory is EIP712MetaTransaction, ConstructedCloneFactory, FixedProductMarketMakerData {\n    event FixedProductMarketMakerCreation(\n        address indexed creator,\n        FixedProductMarketMaker fixedProductMarketMaker,\n        ConditionalTokens indexed conditionalTokens,\n        IERC20 indexed collateralToken,\n        bytes32[] conditionIds,\n        uint fee\n    );\n\n    FixedProductMarketMaker public implementationMaster;\n\n    constructor() public {\n        implementationMaster = new FixedProductMarketMaker();\n    }\n\n    function cloneConstructor(bytes calldata consData) external {\n        (\n            ConditionalTokens _conditionalTokens,\n            IERC20 _collateralToken,\n            bytes32[] memory _conditionIds,\n            uint _fee\n        ) = abi.decode(consData, (ConditionalTokens, IERC20, bytes32[], uint));\n\n        _supportedInterfaces[_INTERFACE_ID_ERC165] = true;\n        _supportedInterfaces[\n            ERC1155TokenReceiver(0).onERC1155Received.selector ^\n            ERC1155TokenReceiver(0).onERC1155BatchReceived.selector\n        ] = true;\n\n        conditionalTokens = _conditionalTokens;\n        collateralToken = _collateralToken;\n        conditionIds = _conditionIds;\n        fee = _fee;\n\n        uint atomicOutcomeSlotCount = 1;\n        outcomeSlotCounts = new uint[](conditionIds.length);\n        for (uint i = 0; i < conditionIds.length; i++) {\n            uint outcomeSlotCount = conditionalTokens.getOutcomeSlotCount(conditionIds[i]);\n            atomicOutcomeSlotCount *= outcomeSlotCount;\n            outcomeSlotCounts[i] = outcomeSlotCount;\n        }\n        require(atomicOutcomeSlotCount > 1, \"conditions must be valid\");\n\n        collectionIds = new bytes32[][](conditionIds.length);\n        _recordCollectionIDsForAllConditions(conditionIds.length, bytes32(0));\n        require(positionIds.length == atomicOutcomeSlotCount, \"position IDs construction failed!?\");\n    }\n\n    function _recordCollectionIDsForAllConditions(uint conditionsLeft, bytes32 parentCollectionId) private {\n        if(conditionsLeft == 0) {\n            positionIds.push(CTHelpers.getPositionId(collateralToken, parentCollectionId));\n            return;\n        }\n\n        conditionsLeft--;\n\n        uint outcomeSlotCount = outcomeSlotCounts[conditionsLeft];\n\n        collectionIds[conditionsLeft].push(parentCollectionId);\n        for(uint i = 0; i < outcomeSlotCount; i++) {\n            _recordCollectionIDsForAllConditions(\n                conditionsLeft,\n                CTHelpers.getCollectionId(\n                    parentCollectionId,\n                    conditionIds[conditionsLeft],\n                    1 << i\n                )\n            );\n        }\n    }\n\n    function createFixedProductMarketMaker(\n        ConditionalTokens conditionalTokens,\n        IERC20 collateralToken,\n        bytes32[] calldata conditionIds,\n        uint fee\n    )\n        external\n        returns (FixedProductMarketMaker)\n    {\n        FixedProductMarketMaker fixedProductMarketMaker = FixedProductMarketMaker(\n            createClone(address(implementationMaster), abi.encode(\n                conditionalTokens,\n                collateralToken,\n                conditionIds,\n                fee\n            ))\n        );\n        emit FixedProductMarketMakerCreation(\n            msgSender(),\n            fixedProductMarketMaker,\n            conditionalTokens,\n            collateralToken,\n            conditionIds,\n            fee\n        );\n        return fixedProductMarketMaker;\n    }\n}\n",
  "sourcePath": "/home/prasad/Desktop/dg/conditional-tokens-tutorial/contracts/FixedProductMarketMakerFactory.sol",
  "compiler": {
    "name": "solc",
    "version": "0.5.10+commit.5a6ea5b1.Emscripten.clang"
  },
  "schemaVersion": "3.4.3",
  "updatedAt": "2021-10-28T07:29:13.605Z",
  "devdoc": {
    "methods": {}
  },
  "userdoc": {
    "methods": {}
  }
}