{
  "contractName": "LMSRMarketMakerFactory",
  "abi": [
    {
      "constant": false,
      "inputs": [
        {
          "name": "userAddress",
          "type": "address"
        },
        {
          "name": "functionSignature",
          "type": "bytes"
        },
        {
          "name": "sigR",
          "type": "bytes32"
        },
        {
          "name": "sigS",
          "type": "bytes32"
        },
        {
          "name": "sigV",
          "type": "uint8"
        }
      ],
      "name": "executeMetaTransaction",
      "outputs": [
        {
          "name": "",
          "type": "bytes"
        }
      ],
      "payable": true,
      "stateMutability": "payable",
      "type": "function"
    },
    {
      "constant": true,
      "inputs": [],
      "name": "implementationMaster",
      "outputs": [
        {
          "name": "",
          "type": "address"
        }
      ],
      "payable": false,
      "stateMutability": "view",
      "type": "function"
    },
    {
      "constant": true,
      "inputs": [
        {
          "name": "user",
          "type": "address"
        }
      ],
      "name": "getNonce",
      "outputs": [
        {
          "name": "nonce",
          "type": "uint256"
        }
      ],
      "payable": false,
      "stateMutability": "view",
      "type": "function"
    },
    {
      "inputs": [],
      "payable": false,
      "stateMutability": "nonpayable",
      "type": "constructor"
    },
    {
      "anonymous": false,
      "inputs": [
        {
          "indexed": true,
          "name": "creator",
          "type": "address"
        },
        {
          "indexed": false,
          "name": "lmsrMarketMaker",
          "type": "address"
        },
        {
          "indexed": false,
          "name": "pmSystem",
          "type": "address"
        },
        {
          "indexed": false,
          "name": "collateralToken",
          "type": "address"
        },
        {
          "indexed": false,
          "name": "conditionIds",
          "type": "bytes32[]"
        },
        {
          "indexed": false,
          "name": "fee",
          "type": "uint64"
        },
        {
          "indexed": false,
          "name": "funding",
          "type": "uint256"
        }
      ],
      "name": "LMSRMarketMakerCreation",
      "type": "event"
    },
    {
      "anonymous": false,
      "inputs": [
        {
          "indexed": true,
          "name": "previousOwner",
          "type": "address"
        },
        {
          "indexed": true,
          "name": "newOwner",
          "type": "address"
        }
      ],
      "name": "OwnershipTransferred",
      "type": "event"
    },
    {
      "anonymous": false,
      "inputs": [
        {
          "indexed": false,
          "name": "initialFunding",
          "type": "uint256"
        }
      ],
      "name": "AMMCreated",
      "type": "event"
    },
    {
      "anonymous": false,
      "inputs": [
        {
          "indexed": true,
          "name": "target",
          "type": "address"
        },
        {
          "indexed": false,
          "name": "clone",
          "type": "address"
        }
      ],
      "name": "CloneCreated",
      "type": "event"
    },
    {
      "anonymous": false,
      "inputs": [
        {
          "indexed": false,
          "name": "userAddress",
          "type": "address"
        },
        {
          "indexed": false,
          "name": "relayerAddress",
          "type": "address"
        },
        {
          "indexed": false,
          "name": "functionSignature",
          "type": "bytes"
        }
      ],
      "name": "MetaTransactionExecuted",
      "type": "event"
    },
    {
      "constant": false,
      "inputs": [
        {
          "name": "consData",
          "type": "bytes"
        }
      ],
      "name": "cloneConstructor",
      "outputs": [],
      "payable": false,
      "stateMutability": "nonpayable",
      "type": "function"
    },
    {
      "constant": false,
      "inputs": [
        {
          "name": "pmSystem",
          "type": "address"
        },
        {
          "name": "collateralToken",
          "type": "address"
        },
        {
          "name": "conditionIds",
          "type": "bytes32[]"
        },
        {
          "name": "fee",
          "type": "uint64"
        },
        {
          "name": "whitelist",
          "type": "address"
        },
        {
          "name": "funding",
          "type": "uint256"
        }
      ],
      "name": "createLMSRMarketMaker",
      "outputs": [
        {
          "name": "lmsrMarketMaker",
          "type": "address"
        }
      ],
      "payable": false,
      "stateMutability": "nonpayable",
      "type": "function"
    }
  ],
  "bytecode": "0x60806040523480156200001157600080fd5b506040518060400160405280600481526020017f6e616d65000000000000000000000000000000000000000000000000000000008152506040518060400160405280600781526020017f76657273696f6e000000000000000000000000000000000000000000000000008152506040518060800160405280604f8152602001620057be604f9139805190602001208280519060200120828051906020012030620000c06200017160201b60201c565b60001b60405160200180868152602001858152602001848152602001836001600160a01b03166001600160a01b03168152602001828152602001955050505050506040516020818303038152906040528051906020012060008190555050506040516200012d9062000176565b604051809103906000f0801580156200014a573d6000803e3d6000fd5b50600e80546001600160a01b0319166001600160a01b039290921691909117905562000184565b600090565b61341780620023a783390190565b61221380620001946000396000f3fe60806040526004361061004a5760003560e01c80630c53c51c1461004f57806312b4d20c146101865780632d0335ab146101b757806352e831dd146101fc5780637c8b2c0714610279575b600080fd5b610111600480360360a081101561006557600080fd5b6001600160a01b038235169190810190604081016020820135600160201b81111561008f57600080fd5b8201836020820111156100a157600080fd5b803590602001918460018302840111600160201b831117156100c257600080fd5b91908080601f016020809104026020016040519081016040528093929190818152602001838380828437600092019190915250929550508235935050506020810135906040013560ff1661032c565b6040805160208082528351818301528351919283929083019185019080838360005b8381101561014b578181015183820152602001610133565b50505050905090810190601f1680156101785780820380516001836020036101000a031916815260200191505b509250505060405180910390f35b34801561019257600080fd5b5061019b6106b8565b604080516001600160a01b039092168252519081900360200190f35b3480156101c357600080fd5b506101ea600480360360208110156101da57600080fd5b50356001600160a01b03166106c7565b60408051918252519081900360200190f35b34801561020857600080fd5b506102776004803603602081101561021f57600080fd5b810190602081018135600160201b81111561023957600080fd5b82018360208201111561024b57600080fd5b803590602001918460018302840111600160201b8311171561026c57600080fd5b5090925090506106e2565b005b34801561028557600080fd5b5061019b600480360360c081101561029c57600080fd5b6001600160a01b038235811692602081013590911691810190606081016040820135600160201b8111156102cf57600080fd5b8201836020820111156102e157600080fd5b803590602001918460208302840111600160201b8311171561030257600080fd5b919350915067ffffffffffffffff813516906001600160a01b036020820135169060400135610b40565b6060600061033986610f4c565b90506000356001600160e01b0319908116908216141561038a5760405162461bcd60e51b815260040180806020018281038252603d815260200180612161603d913960400191505060405180910390fd5b610392611ff1565b50604080516060810182526001600160a01b038916600081815260016020908152908490205483528201529081018790526103d08882888888610f6c565b61040b5760405162461bcd60e51b81526004018080602001828103825260218152602001806121be6021913960400191505060405180910390fd5b6001600160a01b0388166000908152600160208190526040909120546104369163ffffffff61105916565b600160008a6001600160a01b03166001600160a01b031681526020019081526020016000208190555060006060306001600160a01b0316898b6040516020018083805190602001908083835b602083106104a15780518252601f199092019160209182019101610482565b6001836020036101000a038019825116818451168082178552505050505050905001826001600160a01b03166001600160a01b031660601b8152601401925050506040516020818303038152906040526040518082805190602001908083835b602083106105205780518252601f199092019160209182019101610501565b6001836020036101000a0380198251168184511680821785525050505050509050019150506000604051808303816000865af19150503d8060008114610582576040519150601f19603f3d011682016040523d82523d6000602084013e610587565b606091505b5091509150816105de576040805162461bcd60e51b815260206004820152601c60248201527f46756e6374696f6e2063616c6c206e6f74207375636365737366756c00000000604482015290519081900360640190fd5b7f5845892132946850460bff5a0083f71031bc5bf9aadcd40f1de79423eac9b10b8a338b60405180846001600160a01b03166001600160a01b03168152602001836001600160a01b03166001600160a01b0316815260200180602001828103825283818151815260200191508051906020019080838360005b8381101561066f578181015183820152602001610657565b50505050905090810190601f16801561069c5780820380516001836020036101000a031916815260200191505b5094505050505060405180910390a19998505050505050505050565b600e546001600160a01b031681565b6001600160a01b031660009081526001602052604090205490565b6000806060600080868660a08110156106fa57600080fd5b6001600160a01b038235811692602081013590911691810190606081016040820135600160201b81111561072d57600080fd5b82018360208201111561073f57600080fd5b803590602001918460208302840111600160201b8311171561076057600080fd5b919080806020026020016040519081016040528093929190818152602001838360200280828437600092019190915250979c50959a5090985050803567ffffffffffffffff169650602001356001600160a01b031694506107c593506110ba92505050565b600280546001600160a01b0319166001600160a01b0392831617908190556040519116906000907f8be0079c531659141344cd1fd0a4f28419497f9722a3daafe3b4186f6b6457e0908290a360036020527f28b0ef64f7e82d3b26f3fd404bd0151552f792965f39c29ae82c0a78df67af9c8054600160ff199182168117909255630271189760e51b6000527f1b0a8c8743953bd832c9e1d6a5e52d4143b336fe3e4824afb8e5e7621b19f90b805490911690911790556001600160a01b038516158015906108a55750670de0b6b3a764000067ffffffffffffffff8316105b6108ae57600080fd5b600480546001600160a01b038088166001600160a01b031992831617909255600580549287169290911691909117905582516108f190600690602086019061201b565b506008805467ffffffffffffffff191667ffffffffffffffff8416179055600a8054610100600160a81b0319166101006001600160a01b038416021790556001600755600654604080518281526020808402820101909152908015610960578160200160208202803883390190505b50805161097591600b9160209091019061201b565b5060005b600654811015610a4257600454600680546000926001600160a01b03169163d42dc0c291859081106109a757fe5b90600052602060002001546040518263ffffffff1660e01b81526004018082815260200191505060206040518083038186803b1580156109e657600080fd5b505afa1580156109fa573d6000803e3d6000fd5b505050506040513d6020811015610a1057600080fd5b50516007805482029055600b8054919250829184908110610a2d57fe5b60009182526020909120015550600101610979565b50600160075411610a9a576040805162461bcd60e51b815260206004820152601860248201527f636f6e646974696f6e73206d7573742062652076616c69640000000000000000604482015290519081900360640190fd5b600654604080518281526020808402820101909152908015610ad057816020015b6060815260200190600190039081610abb5790505b508051610ae591600c91602090910190612066565b50600654610af4906000611118565b600a805460ff1916600117905560095460408051918252517f631ac92e0a879a687b1bd27a7dcbf3ec0be307aa0a1046c0df4109be02c49307916020908290030190a150505050505050565b6000610c19600e60009054906101000a90046001600160a01b031689898989898960405160200180876001600160a01b03166001600160a01b03168152602001866001600160a01b03166001600160a01b03168152602001806020018467ffffffffffffffff1667ffffffffffffffff168152602001836001600160a01b03166001600160a01b031681526020018281038252868682818152602001925060200280828437600081840152601f19601f8201169050808301925050509750505050505050506040516020818303038152906040526111e9565b9050866001600160a01b03166323b872dd610c326110ba565b604080516001600160e01b031960e085901b1681526001600160a01b039092166004830152306024830152604482018690525160648083019260209291908290030181600087803b158015610c8657600080fd5b505af1158015610c9a573d6000803e3d6000fd5b505050506040513d6020811015610cb057600080fd5b50506040805163095ea7b360e01b81526001600160a01b0383811660048301526024820185905291519189169163095ea7b3916044808201926020929091908290030181600087803b158015610d0557600080fd5b505af1158015610d19573d6000803e3d6000fd5b505050506040513d6020811015610d2f57600080fd5b5050604080516321fce69760e21b81526004810184905290516001600160a01b038316916387f39a5c91602480830192600092919082900301818387803b158015610d7957600080fd5b505af1158015610d8d573d6000803e3d6000fd5b50505050806001600160a01b031663046f7da26040518163ffffffff1660e01b8152600401600060405180830381600087803b158015610dcc57600080fd5b505af1158015610de0573d6000803e3d6000fd5b50505050806001600160a01b031663f2fde38b610dfb6110ba565b6040518263ffffffff1660e01b815260040180826001600160a01b03166001600160a01b03168152602001915050600060405180830381600087803b158015610e4357600080fd5b505af1158015610e57573d6000803e3d6000fd5b50505050610e636110ba565b6001600160a01b03167f6867cd3ddf1a2f1ce80923be4ebe91b6cdab90ef2266e1b5c38c3e509ad0d8f8828a8a8a8a8a8960405180886001600160a01b03166001600160a01b03168152602001876001600160a01b03166001600160a01b03168152602001866001600160a01b03166001600160a01b03168152602001806020018467ffffffffffffffff1667ffffffffffffffff1681526020018381526020018281038252868682818152602001925060200280828437600083820152604051601f909101601f19169092018290039a509098505050505050505050a2979650505050505050565b6000815160001415610f6057506000610f67565b5060208101515b919050565b6000806001610f82610f7d886113b8565b611487565b84878760405160008152602001604052604051808581526020018460ff1660ff1681526020018381526020018281526020019450505050506020604051602081039080840390855afa158015610fdc573d6000803e3d6000fd5b5050604051601f1901519150506001600160a01b038116611038576040805162461bcd60e51b8152602060048201526011602482015270496e76616c6964207369676e617475726560781b604482015290519081900360640190fd5b866001600160a01b0316816001600160a01b03161491505095945050505050565b6000828201838110156110b3576040805162461bcd60e51b815260206004820152601b60248201527f536166654d6174683a206164646974696f6e206f766572666c6f770000000000604482015290519081900360640190fd5b9392505050565b6000333014156111125760606000368080601f0160208091040260200160405190810160405280939291908181526020018383808284376000920191909152505050503601516001600160a01b031691506111159050565b50335b90565b8161115157600554600d90611136906001600160a01b0316836114d3565b815460018101835560009283526020909220909101556111e5565b8180600190039250506000600b838154811061116957fe5b90600052602060002001549050600c838154811061118357fe5b600091825260208083209091018054600181018255908352908220018390555b818110156111e2576111da846111d585600688815481106111c057fe5b9060005260206000200154856001901b611517565b611118565b6001016111a3565b50505b5050565b60006060826040516024018080602001828103825283818151815260200191508051906020019080838360005b8381101561122e578181015183820152602001611216565b50505050905090810190601f16801561125b5780820380516001836020036101000a031916815260200191505b5060408051601f1981840381018252928252602080820180516001600160e01b03166352e831dd60e01b179052815183516063820180825260829092019095168501909101909252955060609450909250905080156112c1576020820181803883390190505b507f3d3d606380380380913d393d73bebebebebebebebebebebebebebebebebebebe6020820152600160601b308102602d8301527f5af4602a57600080fd5b602d8060366000396000f3363d3d373d3d3d363d73be6041830152860260608201526e5af43d82803e903d91602b57fd5bf360881b6074820152905060005b825181101561138d5782818151811061135457fe5b602001015160f81c60f81b82826063018151811061136e57fe5b60200101906001600160f81b031916908160001a90535060010161133f565b5080516020820181816000f0945050506001600160a01b0383166113b057600080fd5b505092915050565b600060405180608001604052806043815260200161211e60439139805190602001208260000151836020015184604001516040518082805190602001908083835b602083106114185780518252601f1990920191602091820191016113f9565b51815160001960209485036101000a019081169019919091161790526040805194909201849003842084820199909952838201979097526001600160a01b039095166060830152506080808201969096528351808203909601865260a001909252505081519101209050919050565b6000611491611846565b82604051602001808061190160f01b81525060020183815260200182815260200192505050604051602081830303815290604052805190602001209050919050565b6040805160609390931b6bffffffffffffffffffffffff19166020808501919091526034808501939093528151808503909301835260549093019052805191012090565b6040805160208082018590528183018490528251808303840181526060909201909252805191012060009060ff81901c151582805b60008051602061219e83398151915260018508935060008051602061219e833981519152600360008051602061219e8339815191528087880987090890506115938161184c565b91508060008051602061219e833981519152838409141561154c578280156115bc575060028206155b806115d35750821580156115d35750600282066001145b156115ec578160008051602061219e8339815191520391505b8780156118235760fe81901c151593506001600160fe1b031660008051602061219e833981519152600360008051602061219e83398151915280848509840908915060006116398361184c565b9050848015611649575060028106155b806116605750841580156116605750600281066001145b156116765760008051602061219e833981519152035b8260008051602061219e833981519152828309146116db576040805162461bcd60e51b815260206004820152601c60248201527f696e76616c696420706172656e7420636f6c6c656374696f6e20494400000000604482015290519081900360640190fd5b6000606060066001600160a01b031688878686604051602001808581526020018481526020018381526020018281526020019450505050506040516020818303038152906040526040518082805190602001908083835b602083106117515780518252601f199092019160209182019101611732565b6001836020036101000a038019825116818451168082178552505050505050905001915050600060405180830381855afa9150503d80600081146117b1576040519150601f19603f3d011682016040523d82523d6000602084013e6117b6565b606091505b5091509150816117fc576040805162461bcd60e51b815260206004820152600c60248201526b1958d859190819985a5b195960a21b604482015290519081900360640190fd5b80806020019051604081101561181157600080fd5b50805160209091015190985095505050505b600283066001141561183957600160fe1b851894505b5092979650505050505050565b60005490565b600060008051602061219e833981519152808380099150808283098181820990508181840992508183850993508184840992508183840990508181820982818309905082818209905082818209905082818309915082828609945082858609915082828309915082828509935082848509915082828309915082828309915082828509915082828609945082858609915082828309915082828309915082828609915082828509935082848609945082858609915082828309915082828509935082848509915082828309905082818209905082818209905082818309915082828609945082858509935082848509915082828309915082828309915082828609945082858609915082828309915082828609915082828309915082828309915082828609915082828509935082848509915082828309905082818209905082818309905082818509905082818209905082818209905082818209905082818209905082818309915082828609945082858609915082828609915082828509935082848509915082828509915082828309915082828309905082818309905082818209838182099050838182099050838182099050838182099050838183099150508281830991508282860994508285850993508284850991508282860994508285850993508284860994508285850993508284860994508285860991508282860991508282830991508282850993508284850991508282830991508282860994508285850993508284850991508282850991508282860994508285850993508284860994508285850993508284850991508282830991508282850991508282860994508285860991508282860991508282850993508284860994508285850993508284860994508285850993508284850991508282850991508282830991508282860994508285850993508284850991508282850991508282830991508282860994508285860991508282830990508281820990508281830990508281860990508281820990508281820990508281820990508281820990508281830991508282850993508284860994508285850993508284860994508285860991508282860991508282830991508282830991508282830991508282860991508282850993508284850991508282850991508282830991508282860994508285860991508282860991508282850993508284860994508285860991508282830991508282850993508284860994508285860991508282850993508284860994508285850993508284850991508282850991508282860994508285850993508284850991508282850991508282830991508282830991508282860994508285860991508282830991508282830991508282860991508282850993508284860994508285860991508282860990508281820990508281820990508281830991508282850993508284850991508282860994508285850993508284860994508285850993508284860994508285850993508284850991508282850990508281850991508282830991508282830991508282820991505081818509935081848409925081838509935081848409925081838509935081848509905081818509905081818409925050808284099250808384099250808384099250808384099250808384099250808384099250808384099250808384099250808384099250808384099250808384099250808384099250808384099250808384099250808384099250808384099250808384099250808384099250808384099250808384099250808384099250808384099250808384099250808384099250808384099250808384099250808384099250808384099250808384099250808384099250808384099250808384099250808384099250808384099250808384099250808384099250808384099250808384099250808384099250808384099250808384099250808384099250808384099250808384099250808384099250808384099250808384099250808384099250808384099250808384099250808384099250808384099250808384099250808384099250808384099250808384099250808384099250808384099250808384099250808384099250808384099250808384099250808384099250808384099250808384099250808384099250808384099250808384099250808384099250808384099250808384099250808384099250808384099250808384099250808384099250808384099250808384099250808384099250808384099250808384099250808384099250808384099250808384099250808384099250808384099250808384099250808384099250808384099250808384099250808384099250808384099250808384099250808384099250808384099250808384099250808384099250808384099250808384099250808384099250808384099250808384099250808384099250808384099250808384099250808384099250808384099250808384099250808384099250808384099250808384099250808384099250808384099250808384099250808384099250808384099250808384099250808384099250808384099250808384099250808384099250808384099250808384099250808384099250808384099250808384099250808384099250808384099250808383099392505050565b60405180606001604052806000815260200160006001600160a01b03168152602001606081525090565b828054828255906000526020600020908101928215612056579160200282015b8281111561205657825182559160200191906001019061203b565b506120629291506120bf565b5090565b8280548282559060005260206000209081019282156120b3579160200282015b828111156120b357825180516120a391849160209091019061201b565b5091602001919060010190612086565b506120629291506120d9565b61111591905b8082111561206257600081556001016120c5565b61111591905b808211156120625760006120f382826120fc565b506001016120df565b508054600082559060005260206000209081019061211a91906120bf565b5056fe4d6574615472616e73616374696f6e2875696e74323536206e6f6e63652c616464726573732066726f6d2c62797465732066756e6374696f6e5369676e61747572652966756e6374696f6e5369676e61747572652063616e206e6f74206265206f6620657865637574654d6574615472616e73616374696f6e206d6574686f6430644e72e131a029b85045b68181585d97816a916871ca8d3c208c16d87cfd475369676e657220616e64207369676e617475726520646f206e6f74206d61746368a265627a7a72305820f6d5ff290a4dd04ee338eb2164e7bf3df0de98213666f3ec4beed8d2688de6ec64736f6c634300050a0032600460809081527f6e616d650000000000000000000000000000000000000000000000000000000060a052600760c09081527f76657273696f6e0000000000000000000000000000000000000000000000000060e052610180604052604f61010081815290620033c86101203980519060200120828051906020012082805190602001203062000094620001b260201b60201c565b604080516020808201979097528082019590955260608501939093526001600160a01b03909116608084015260a0808401919091528151808403909101815260c09092019052805191012060005550620000f890506001600160e01b03620001b716565b600280546001600160a01b0319166001600160a01b0392831617908190556040519116906000907f8be0079c531659141344cd1fd0a4f28419497f9722a3daafe3b4186f6b6457e0908290a3620001787f01ffc9a7000000000000000000000000000000000000000000000000000000006001600160e01b036200021716565b620001ac7f4e2312e0000000000000000000000000000000000000000000000000000000006001600160e01b036200021716565b620002e6565b600090565b600033301415620002115760606000368080601f0160208091040260200160405190810160405280939291908181526020018383808284376000920191909152505050503601516001600160a01b03169150620002149050565b50335b90565b7fffffffff000000000000000000000000000000000000000000000000000000008082161415620002a957604080517f08c379a000000000000000000000000000000000000000000000000000000000815260206004820152601c60248201527f4552433136353a20696e76616c696420696e7465726661636520696400000000604482015290519081900360640190fd5b7fffffffff00000000000000000000000000000000000000000000000000000000166000908152600360205260409020805460ff19166001179055565b6130d280620002f66000396000f3fe6080604052600436106101b75760003560e01c806393e59dc1116100ec578063d8c55af71161008a578063e7f3378911610064578063e7f337891461085f578063f23a6e6114610893578063f2fde38b14610933578063fbde47f614610966576101b7565b8063d8c55af7146107ee578063dd83bad214610818578063ddca3f431461082d576101b7565b8063b20f8e7f116100c6578063b20f8e7f14610622578063bc197c811461064f578063c040e6b8146107a0578063cb4c86b7146107d9576101b7565b806393e59dc1146105ce578063b0011509146105e3578063b2016bd41461060d576101b7565b8063476343ee116101595780638456cb59116101335780638456cb591461056557806387f39a5c1461057a5780638da5cb5b146105a45780638f32d59b146105b9576101b7565b8063476343ee1461048d578063715018a6146104a2578063782d085b146104b7576101b7565b80630c53c51c116101955780630c53c51c1461024c57806315bd7611146103835780632d0335ab1461044557806343d726d614610478576101b7565b806301ffc9a7146101bc578063046f7da21461020457806305be8b2c1461021b575b600080fd5b3480156101c857600080fd5b506101f0600480360360208110156101df57600080fd5b50356001600160e01b03191661097b565b604080519115158252519081900360200190f35b34801561021057600080fd5b5061021961099e565b005b34801561022757600080fd5b50610230610a39565b604080516001600160a01b039092168252519081900360200190f35b61030e600480360360a081101561026257600080fd5b6001600160a01b038235169190810190604081016020820135600160201b81111561028c57600080fd5b82018360208201111561029e57600080fd5b803590602001918460018302840111600160201b831117156102bf57600080fd5b91908080601f016020809104026020016040519081016040528093929190818152602001838380828437600092019190915250929550508235935050506020810135906040013560ff16610a48565b6040805160208082528351818301528351919283929083019185019080838360005b83811015610348578181015183820152602001610330565b50505050905090810190601f1680156103755780820380516001836020036101000a031916815260200191505b509250505060405180910390f35b34801561038f57600080fd5b50610433600480360360408110156103a657600080fd5b810190602081018135600160201b8111156103c057600080fd5b8201836020820111156103d257600080fd5b803590602001918460208302840111600160201b831117156103f357600080fd5b9190808060200260200160405190810160405280939291908181526020018383602002808284376000920191909152509295505091359250610dd4915050565b60408051918252519081900360200190f35b34801561045157600080fd5b506104336004803603602081101561046857600080fd5b50356001600160a01b031661158e565b34801561048457600080fd5b506102196115a9565b34801561049957600080fd5b506104336117d5565b3480156104ae57600080fd5b5061021961196c565b3480156104c357600080fd5b50610433600480360360208110156104da57600080fd5b810190602081018135600160201b8111156104f457600080fd5b82018360208201111561050657600080fd5b803590602001918460208302840111600160201b8311171561052757600080fd5b9190808060200260200160405190810160405280939291908181526020018383602002808284376000920191909152509295506119fd945050505050565b34801561057157600080fd5b50610219611cfb565b34801561058657600080fd5b506102196004803603602081101561059d57600080fd5b5035611d99565b3480156105b057600080fd5b506102306120e4565b3480156105c557600080fd5b506101f06120f3565b3480156105da57600080fd5b50610230612119565b3480156105ef57600080fd5b506104336004803603602081101561060657600080fd5b503561212d565b34801561061957600080fd5b5061023061214d565b34801561062e57600080fd5b506104336004803603602081101561064557600080fd5b503560ff1661215c565b34801561065b57600080fd5b50610783600480360360a081101561067257600080fd5b6001600160a01b038235811692602081013590911691810190606081016040820135600160201b8111156106a557600080fd5b8201836020820111156106b757600080fd5b803590602001918460208302840111600160201b831117156106d857600080fd5b919390929091602081019035600160201b8111156106f557600080fd5b82018360208201111561070757600080fd5b803590602001918460208302840111600160201b8311171561072857600080fd5b919390929091602081019035600160201b81111561074557600080fd5b82018360208201111561075757600080fd5b803590602001918460018302840111600160201b8311171561077857600080fd5b50909250905061233a565b604080516001600160e01b03199092168252519081900360200190f35b3480156107ac57600080fd5b506107b561236b565b604051808260028111156107c557fe5b60ff16815260200191505060405180910390f35b3480156107e557600080fd5b50610433612374565b3480156107fa57600080fd5b506104336004803603602081101561081157600080fd5b503561237a565b34801561082457600080fd5b50610433612398565b34801561083957600080fd5b5061084261239e565b6040805167ffffffffffffffff9092168252519081900360200190f35b34801561086b57600080fd5b506102196004803603602081101561088257600080fd5b503567ffffffffffffffff166123ae565b34801561089f57600080fd5b50610783600480360360a08110156108b657600080fd5b6001600160a01b03823581169260208101359091169160408201359160608101359181019060a081016080820135600160201b8111156108f557600080fd5b82018360208201111561090757600080fd5b803590602001918460018302840111600160201b8311171561092857600080fd5b509092509050612470565b34801561093f57600080fd5b506102196004803603602081101561095657600080fd5b50356001600160a01b031661249f565b34801561097257600080fd5b506108426124f2565b6001600160e01b0319811660009081526003602052604090205460ff165b919050565b6109a66120f3565b6109e5576040805162461bcd60e51b8152602060048201819052602482015260008051602061303a833981519152604482015290519081900360640190fd5b600180600a5460ff1660028111156109f957fe5b14610a0357600080fd5b600a805460ff191690556040517fb0cf596e1402e50b88a6d1097918e48922e4a2878ece11d7bb51b5d81cf6c17890600090a150565b6004546001600160a01b031681565b60606000610a55866124fe565b90506000356001600160e01b03199081169082161415610aa65760405162461bcd60e51b815260040180806020018281038252603d815260200180612fd0603d913960400191505060405180910390fd5b610aae612f3c565b50604080516060810182526001600160a01b03891660008181526001602090815290849020548352820152908101879052610aec888288888861251a565b610b275760405162461bcd60e51b815260040180806020018281038252602181526020018061305a6021913960400191505060405180910390fd5b6001600160a01b038816600090815260016020819052604090912054610b529163ffffffff61260716565b600160008a6001600160a01b03166001600160a01b031681526020019081526020016000208190555060006060306001600160a01b0316898b6040516020018083805190602001908083835b60208310610bbd5780518252601f199092019160209182019101610b9e565b6001836020036101000a038019825116818451168082178552505050505050905001826001600160a01b03166001600160a01b031660601b8152601401925050506040516020818303038152906040526040518082805190602001908083835b60208310610c3c5780518252601f199092019160209182019101610c1d565b6001836020036101000a0380198251168184511680821785525050505050509050019150506000604051808303816000865af19150503d8060008114610c9e576040519150601f19603f3d011682016040523d82523d6000602084013e610ca3565b606091505b509150915081610cfa576040805162461bcd60e51b815260206004820152601c60248201527f46756e6374696f6e2063616c6c206e6f74207375636365737366756c00000000604482015290519081900360640190fd5b7f5845892132946850460bff5a0083f71031bc5bf9aadcd40f1de79423eac9b10b8a338b60405180846001600160a01b03166001600160a01b03168152602001836001600160a01b03166001600160a01b0316815260200180602001828103825283818151815260200191508051906020019080838360005b83811015610d8b578181015183820152602001610d73565b50505050905090810190601f168015610db85780820380516001836020036101000a031916815260200191505b5094505050505060405180910390a19998505050505050505050565b60008080600a5460ff166002811115610de957fe5b14610df357600080fd5b600a5461010090046001600160a01b03161580610e9c5750600a5461010090046001600160a01b0316633af32abf610e2961266a565b6040518263ffffffff1660e01b815260040180826001600160a01b03166001600160a01b0316815260200191505060206040518083038186803b158015610e6f57600080fd5b505afa158015610e83573d6000803e3d6000fd5b505050506040513d6020811015610e9957600080fd5b50515b610ed75760405162461bcd60e51b815260040180806020018281038252602d81526020018061300d602d913960400191505060405180910390fd5b600754845114610ee657600080fd5b6000610ef1856119fd565b9050600080821215610f1057610f098260000361212d565b9050610f1c565b610f198261212d565b90505b6000811215610f2a57600080fd5b610f3a828263ffffffff6126c816565b93508415801590610f4b5750848413155b80610f54575084155b610f5d57600080fd5b600082131561109f576005546001600160a01b03166323b872dd610f7f61266a565b604080516001600160e01b031960e085901b1681526001600160a01b039092166004830152306024830152604482018890525160648083019260209291908290030181600087803b158015610fd357600080fd5b505af1158015610fe7573d6000803e3d6000fd5b505050506040513d6020811015610ffd57600080fd5b5051801561108d5750600554600480546040805163095ea7b360e01b81526001600160a01b0392831693810193909352602483018690525192169163095ea7b3916044808201926020929091908290030181600087803b15801561106057600080fd5b505af1158015611074573d6000803e3d6000fd5b505050506040513d602081101561108a57600080fd5b50515b61109657600080fd5b61109f826126f7565b600080905060606007546040519080825280602002602001820160405280156110d2578160200160208202803883390190505b50905060005b60075481101561113a5760008982815181106110f057fe5b60200260200101511215611132576001925088818151811061110e57fe5b602002602001015160000382828151811061112557fe5b6020026020010181815250505b6001016110d8565b508115611272576004546001600160a01b0316632eb2c2d661115a61266a565b30600d856040518563ffffffff1660e01b815260040180856001600160a01b03166001600160a01b03168152602001846001600160a01b03166001600160a01b0316815260200180602001806020018060200184810384528681815481526020019150805480156111ea57602002820191906000526020600020905b8154815260200190600101908083116111d6575b50508481038352855181528551602091820191808801910280838360005b83811015611220578181015183820152602001611208565b50505050905001848103825260008152602001602001975050505050505050600060405180830381600087803b15801561125957600080fd5b505af115801561126d573d6000803e3d6000fd5b505050505b60008412156112875761128784600003612882565b61128f61266a565b6001600160a01b03167fda7ff5556ce7ecfcf06296f03426e8c02a7305b85cfd88816a32f7f4969051778986866040518080602001848152602001838152602001828103825285818151815260200191508051906020019060200280838360005b838110156113085781810151838201526020016112f0565b5050505090500194505050505060405180910390a260009150815b6007548110156113a157600089828151811061133b57fe5b6020026020010151131561137e576001925088818151811061135957fe5b602002602001015182828151811061136d57fe5b602002602001018181525050611399565b600082828151811061138c57fe5b6020026020010181815250505b600101611323565b5081156114d9576004546001600160a01b0316632eb2c2d6306113c261266a565b600d856040518563ffffffff1660e01b815260040180856001600160a01b03166001600160a01b03168152602001846001600160a01b03166001600160a01b03168152602001806020018060200180602001848103845286818154815260200191508054801561145157602002820191906000526020600020905b81548152602001906001019080831161143d575b50508481038352855181528551602091820191808801910280838360005b8381101561148757818101518382015260200161146f565b50505050905001848103825260008152602001602001975050505050505050600060405180830381600087803b1580156114c057600080fd5b505af11580156114d4573d6000803e3d6000fd5b505050505b6000861215611583576005546001600160a01b031663a9059cbb6114fb61266a565b886000036040518363ffffffff1660e01b815260040180836001600160a01b03166001600160a01b0316815260200182815260200192505050602060405180830381600087803b15801561154e57600080fd5b505af1158015611562573d6000803e3d6000fd5b505050506040513d602081101561157857600080fd5b505161158357600080fd5b505050505092915050565b6001600160a01b031660009081526001602052604090205490565b6115b16120f3565b6115f0576040805162461bcd60e51b8152602060048201819052602482015260008051602061303a833981519152604482015290519081900360640190fd5b6000600a5460ff16600281111561160357fe5b148061161f57506001600a5460ff16600281111561161d57fe5b145b61165a5760405162461bcd60e51b815260040180806020018281038252602381526020018061307b6023913960400191505060405180910390fd5b60005b60075481101561179c576000611672826129f9565b6004549091506001600160a01b031663f242432a3061168f6120e4565b6004805460408051627eeac760e11b81523093810193909352602483018890525187926001600160a01b039092169162fdd58e916044808301926020929190829003018186803b1580156116e257600080fd5b505afa1580156116f6573d6000803e3d6000fd5b505050506040513d602081101561170c57600080fd5b5051604080516001600160e01b031960e088901b1681526001600160a01b0395861660048201529390941660248401526044830191909152606482015260a06084820152600060a48201819052915160e4808301939282900301818387803b15801561177757600080fd5b505af115801561178b573d6000803e3d6000fd5b50506001909301925061165d915050565b50600a805460ff191660021790556040517f6e18b1b14477b5922c6efa82206ed0e3b73c2500e8d1528c9a6e17554ea1255490600090a1565b60006117df6120f3565b61181e576040805162461bcd60e51b8152602060048201819052602482015260008051602061303a833981519152604482015290519081900360640190fd5b600554604080516370a0823160e01b815230600482015290516001600160a01b03909216916370a0823191602480820192602092909190829003018186803b15801561186957600080fd5b505afa15801561187d573d6000803e3d6000fd5b505050506040513d602081101561189357600080fd5b50516005549091506001600160a01b031663a9059cbb6118b16120e4565b836040518363ffffffff1660e01b815260040180836001600160a01b03166001600160a01b0316815260200182815260200192505050602060405180830381600087803b15801561190157600080fd5b505af1158015611915573d6000803e3d6000fd5b505050506040513d602081101561192b57600080fd5b505161193657600080fd5b6040805182815290517fce1d35d26fbf6b3cc5cd924de10b5a52b08e484129ea7d93abc48d739fffe5b99181900360200190a190565b6119746120f3565b6119b3576040805162461bcd60e51b8152602060048201819052602482015260008051602061303a833981519152604482015290519081900360640190fd5b6002546040516000916001600160a01b0316907f8be0079c531659141344cd1fd0a4f28419497f9722a3daafe3b4186f6b6457e0908390a3600280546001600160a01b0319169055565b6000600754825114611a0e57600080fd5b6060600754604051908082528060200260200182016040528015611a3c578160200160208202803883390190505b50905060005b600754811015611b38576004546000906001600160a01b031662fdd58e30611a69856129f9565b6040518363ffffffff1660e01b815260040180836001600160a01b03166001600160a01b031681526020018281526020019250505060206040518083038186803b158015611ab657600080fd5b505afa158015611aca573d6000803e3d6000fd5b505050506040513d6020811015611ae057600080fd5b505190506000811215611af257600080fd5b611b1881868481518110611b0257fe5b6020026020010151612a1a90919063ffffffff16565b838381518110611b2457fe5b602090810291909101015250600101611a42565b50600073__Fixed192x64Math_______________________63137bf798600160401b6007540260016040518363ffffffff1660e01b815260040180838152602001826002811115611b8557fe5b60ff1681526020019250505060206040518083038186803b158015611ba957600080fd5b505af4158015611bbd573d6000803e3d6000fd5b505050506040513d6020811015611bd357600080fd5b50519050600080611be78385836001612a48565b506040805163026f7ef360e31b81526004810184905260016024820152905192945090925073__Fixed192x64Math_______________________9163137bf79891604480820192602092909190829003018186803b158015611c4857600080fd5b505af4158015611c5c573d6000803e3d6000fd5b505050506040513d6020811015611c7257600080fd5b50519450611c86858263ffffffff6126c816565b600954909550611cb99084611ca588600160401b63ffffffff612c7816565b81611cac57fe5b059063ffffffff612c7816565b9450600085131580611cd2575084600160401b80820502145b15611ce557600160401b85059450611cf2565b600160401b850560010194505b50505050919050565b611d036120f3565b611d42576040805162461bcd60e51b8152602060048201819052602482015260008051602061303a833981519152604482015290519081900360640190fd5b600080600a5460ff166002811115611d5657fe5b14611d6057600080fd5b600a805460ff191660011790556040517fbb11914e7a395f00cf0920fe85f50088bd8d7681529fb0bd3c27ccb45a8bcd8f90600090a150565b611da16120f3565b611de0576040805162461bcd60e51b8152602060048201819052602482015260008051602061303a833981519152604482015290519081900360640190fd5b600180600a5460ff166002811115611df457fe5b14611dfe57600080fd5b81611e50576040805162461bcd60e51b815260206004820152601f60248201527f66756e64696e67206368616e6765206d757374206265206e6f6e2d7a65726f00604482015290519081900360640190fd5b6000821315611fdc576005546001600160a01b03166323b872dd611e7261266a565b604080516001600160e01b031960e085901b1681526001600160a01b039092166004830152306024830152604482018690525160648083019260209291908290030181600087803b158015611ec657600080fd5b505af1158015611eda573d6000803e3d6000fd5b505050506040513d6020811015611ef057600080fd5b50518015611f805750600554600480546040805163095ea7b360e01b81526001600160a01b0392831693810193909352602483018690525192169163095ea7b3916044808201926020929091908290030181600087803b158015611f5357600080fd5b505af1158015611f67573d6000803e3d6000fd5b505050506040513d6020811015611f7d57600080fd5b50515b611f8957600080fd5b611f92826126f7565b600954611fa5908363ffffffff61260716565b6009556040805183815290517fc55e9a33fb8b1de5318b5c7b96a32937e54006c82000b2c468ed1fb9f73f67999181900360200190a15b60008212156120e057611ff182600003612882565b60095461200890600084900363ffffffff612cb916565b6009556005546001600160a01b031663a9059cbb6120246120e4565b846000036040518363ffffffff1660e01b815260040180836001600160a01b03166001600160a01b0316815260200182815260200192505050602060405180830381600087803b15801561207757600080fd5b505af115801561208b573d6000803e3d6000fd5b505050506040513d60208110156120a157600080fd5b50516120ac57600080fd5b6040805183815290517fc55e9a33fb8b1de5318b5c7b96a32937e54006c82000b2c468ed1fb9f73f67999181900360200190a15b5050565b6002546001600160a01b031690565b6002546000906001600160a01b031661210a61266a565b6001600160a01b031614905090565b600a5461010090046001600160a01b031681565b600854670de0b6b3a764000067ffffffffffffffff909116919091020490565b6005546001600160a01b031681565b6000606060075460405190808252806020026020018201604052801561218c578160200160208202803883390190505b50905060005b600754811015612266576004546000906001600160a01b031662fdd58e306121b9856129f9565b6040518363ffffffff1660e01b815260040180836001600160a01b03166001600160a01b031681526020018281526020019250505060206040518083038186803b15801561220657600080fd5b505afa15801561221a573d6000803e3d6000fd5b505050506040513d602081101561223057600080fd5b50516000908103915081131561224557600080fd5b8083838151811061225257fe5b602090810291909101015250600101612192565b50600073__Fixed192x64Math_______________________63137bf798600160401b84510260026040518363ffffffff1660e01b8152600401808381526020018260028111156122b257fe5b60ff1681526020019250505060206040518083038186803b1580156122d657600080fd5b505af41580156122ea573d6000803e3d6000fd5b505050506040513d602081101561230057600080fd5b505190506000806123148385886002612a48565b9250509150600160401b828161232657fe5b04818161232f57fe5b049695505050505050565b60006001600160a01b03891630141561235b575063bc197c8160e01b61235f565b5060005b98975050505050505050565b600a5460ff1681565b60095481565b6006818154811061238757fe5b600091825260209091200154905081565b60075481565b60085467ffffffffffffffff1681565b6123b66120f3565b6123f5576040805162461bcd60e51b8152602060048201819052602482015260008051602061303a833981519152604482015290519081900360640190fd5b600180600a5460ff16600281111561240957fe5b1461241357600080fd5b6008805467ffffffffffffffff191667ffffffffffffffff848116919091179182905560408051929091168252517f43acfe4f4a14c012959016586aee3b318a0a30e17bb8edae05a58d46c80b4199916020908290030190a15050565b60006001600160a01b038716301415612491575063f23a6e6160e01b612495565b5060005b9695505050505050565b6124a76120f3565b6124e6576040805162461bcd60e51b8152602060048201819052602482015260008051602061303a833981519152604482015290519081900360640190fd5b6124ef81612d16565b50565b670de0b6b3a764000081565b600081516000141561251257506000610999565b506020015190565b600080600161253061252b88612db7565b612e86565b84878760405160008152602001604052604051808581526020018460ff1660ff1681526020018381526020018281526020019450505050506020604051602081039080840390855afa15801561258a573d6000803e3d6000fd5b5050604051601f1901519150506001600160a01b0381166125e6576040805162461bcd60e51b8152602060048201526011602482015270496e76616c6964207369676e617475726560781b604482015290519081900360640190fd5b866001600160a01b0316816001600160a01b03161491505095945050505050565b600082820183811015612661576040805162461bcd60e51b815260206004820152601b60248201527f536166654d6174683a206164646974696f6e206f766572666c6f770000000000604482015290519081900360640190fd5b90505b92915050565b6000333014156126c25760606000368080601f0160208091040260200160405190810160405280939291908181526020018383808284376000920191909152505050503601516001600160a01b031691506126c59050565b50335b90565b818101600082128015906126dc5750828112155b806126f157506000821280156126f157508281125b61266457fe5b600654600019015b600081126120e0576060612729600b838154811061271957fe5b9060005260206000200154612ed2565b905060005b600c838154811061273b57fe5b60009182526020909120015481101561287757600454600554600c80546001600160a01b03938416936372ce4275931691908790811061277757fe5b90600052602060002001848154811061278c57fe5b9060005260206000200154600687815481106127a457fe5b906000526020600020015486896040518663ffffffff1660e01b815260040180866001600160a01b03166001600160a01b0316815260200185815260200184815260200180602001838152602001828103825284818151815260200191508051906020019060200280838360005b8381101561282a578181015183820152602001612812565b505050509050019650505050505050600060405180830381600087803b15801561285357600080fd5b505af1158015612867573d6000803e3d6000fd5b50506001909201915061272e9050565b5050600019016126ff565b60005b6006548110156120e05760606128a1600b838154811061271957fe5b905060005b600c83815481106128b357fe5b6000918252602090912001548110156129ef57600454600554600c80546001600160a01b0393841693639e7212ad93169190879081106128ef57fe5b90600052602060002001848154811061290457fe5b90600052602060002001546006878154811061291c57fe5b906000526020600020015486896040518663ffffffff1660e01b815260040180866001600160a01b03166001600160a01b0316815260200185815260200184815260200180602001838152602001828103825284818151815260200191508051906020019060200280838360005b838110156129a257818101518382015260200161298a565b505050509050019650505050505050600060405180830381600087803b1580156129cb57600080fd5b505af11580156129df573d6000803e3d6000fd5b5050600190920191506128a69050565b5050600101612885565b6000600d8281548110612a0857fe5b90600052602060002001549050919050565b80820360008212801590612a2e5750828113155b806126f157506000821280156126f1575082811361266457fe5b6000806000808712158015612a605750600060095412155b612a6957600080fd5b6040516333304e0560e21b815260206004820181815288516024840152885173__Fixed192x64Math_______________________9363ccc13814938b9392839260440191808601910280838360005b83811015612ad0578181015183820152602001612ab8565b505050509050019250505060206040518083038186803b158015612af357600080fd5b505af4158015612b07573d6000803e3d6000fd5b505050506040513d6020811015612b1d57600080fd5b5051600954909250612b35838963ffffffff612c7816565b81612b3c57fe5b059150612b588268b8000000000000000063ffffffff612a1a16565b91506000805b87518160ff161015612c6c5773__Fixed192x64Math_______________________631d580123612bc886600954612bb48e8e8860ff1681518110612b9e57fe5b6020026020010151612c7890919063ffffffff16565b81612bbb57fe5b059063ffffffff612a1a16565b886040518363ffffffff1660e01b815260040180838152602001826002811115612bee57fe5b60ff1681526020019250505060206040518083038186803b158015612c1257600080fd5b505af4158015612c26573d6000803e3d6000fd5b505050506040513d6020811015612c3c57600080fd5b5051915060ff8181169088161415612c52578192505b612c62858363ffffffff61260716565b9450600101612b5e565b50509450945094915050565b600082612c8757506000612664565b5081810260001983141580612ca05750600160ff1b8214155b80156126f1575081838281612cb157fe5b051461266457fe5b600082821115612d10576040805162461bcd60e51b815260206004820152601e60248201527f536166654d6174683a207375627472616374696f6e206f766572666c6f770000604482015290519081900360640190fd5b50900390565b6001600160a01b038116612d5b5760405162461bcd60e51b8152600401808060200182810382526026815260200180612faa6026913960400191505060405180910390fd5b6002546040516001600160a01b038084169216907f8be0079c531659141344cd1fd0a4f28419497f9722a3daafe3b4186f6b6457e090600090a3600280546001600160a01b0319166001600160a01b0392909216919091179055565b6000604051806080016040528060438152602001612f6760439139805190602001208260000151836020015184604001516040518082805190602001908083835b60208310612e175780518252601f199092019160209182019101612df8565b51815160001960209485036101000a019081169019919091161790526040805194909201849003842084820199909952838201979097526001600160a01b039095166060830152506080808201969096528351808203909601865260a001909252505081519101209050919050565b6000612e90612f36565b82604051602001808061190160f01b81525060020183815260200182815260200192505050604051602081830303815290604052805190602001209050919050565b606081604051908082528060200260200182016040528015612efe578160200160208202803883390190505b50905060005b82811015612f3057806001901b828281518110612f1d57fe5b6020908102919091010152600101612f04565b50919050565b60005490565b60405180606001604052806000815260200160006001600160a01b0316815260200160608152509056fe4d6574615472616e73616374696f6e2875696e74323536206e6f6e63652c616464726573732066726f6d2c62797465732066756e6374696f6e5369676e6174757265294f776e61626c653a206e6577206f776e657220697320746865207a65726f206164647265737366756e6374696f6e5369676e61747572652063616e206e6f74206265206f6620657865637574654d6574615472616e73616374696f6e206d6574686f646f6e6c792077686974656c6973746564207573657273206d61792063616c6c20746869732066756e6374696f6e4f776e61626c653a2063616c6c6572206973206e6f7420746865206f776e65725369676e657220616e64207369676e617475726520646f206e6f74206d6174636854686973204d61726b65742068617320616c7265616479206265656e20636c6f736564a265627a7a723058207b5639f3af528a0fa3a2e3ab63f672f0fdef12239675b97d05bc6e743f4d52de64736f6c634300050a0032454950373132446f6d61696e28737472696e67206e616d652c737472696e672076657273696f6e2c6164647265737320766572696679696e67436f6e74726163742c627974657333322073616c7429454950373132446f6d61696e28737472696e67206e616d652c737472696e672076657273696f6e2c6164647265737320766572696679696e67436f6e74726163742c627974657333322073616c7429",
  "source": "pragma solidity ^0.5.1;\n\nimport { IERC20 } from \"openzeppelin-solidity/contracts/token/ERC20/IERC20.sol\";\nimport { ConditionalTokens } from \"./conditional-tokens/ConditionalTokens.sol\";\nimport { CTHelpers } from \"./conditional-tokens/CTHelpers.sol\";\nimport { ConstructedCloneFactory } from \"@gnosis.pm/util-contracts/contracts/ConstructedCloneFactory.sol\";\nimport { LMSRMarketMaker } from \"./LMSRMarketMaker.sol\";\nimport { Whitelist } from \"./Whitelist.sol\";\nimport { ERC1155TokenReceiver } from \"./conditional-tokens/ERC1155/ERC1155TokenReceiver.sol\";\n\nimport \"./metatx/EIP712MetaTransaction.sol\";\n\ncontract LMSRMarketMakerData {\n    address internal _owner;\n    event OwnershipTransferred(address indexed previousOwner, address indexed newOwner);\n\n    bytes4 internal constant _INTERFACE_ID_ERC165 = 0x01ffc9a7;\n    mapping(bytes4 => bool) internal _supportedInterfaces;\n\n    uint64 constant FEE_RANGE = 10**18;\n    event AMMCreated(uint initialFunding);\n    ConditionalTokens internal pmSystem;\n    IERC20 internal collateralToken;\n    bytes32[] internal conditionIds;\n    uint internal atomicOutcomeSlotCount;\n    uint64 internal fee;\n    uint internal funding;\n    Stage internal stage;\n    Whitelist internal whitelist;\n\n    uint[] internal outcomeSlotCounts;\n    bytes32[][] internal collectionIds;\n    uint[] internal positionIds;\n\n    enum Stage {\n        Running,\n        Paused,\n        Closed\n    }\n}\n\ncontract LMSRMarketMakerFactory is EIP712MetaTransaction, ConstructedCloneFactory, LMSRMarketMakerData {\n    event LMSRMarketMakerCreation(address indexed creator, LMSRMarketMaker lmsrMarketMaker, ConditionalTokens pmSystem, IERC20 collateralToken, bytes32[] conditionIds, uint64 fee, uint funding);\n\n    LMSRMarketMaker public implementationMaster;\n\n    constructor() public {\n        implementationMaster = new LMSRMarketMaker();\n    }\n\n    function cloneConstructor(bytes calldata consData) external {\n        (\n            ConditionalTokens _pmSystem,\n            IERC20 _collateralToken,\n            bytes32[] memory _conditionIds,\n            uint64 _fee,\n            Whitelist _whitelist\n        ) = abi.decode(consData, (ConditionalTokens, IERC20, bytes32[], uint64, Whitelist));\n\n        _owner = msgSender();\n        emit OwnershipTransferred(address(0), _owner);\n\n        _supportedInterfaces[_INTERFACE_ID_ERC165] = true;\n        _supportedInterfaces[\n            ERC1155TokenReceiver(0).onERC1155Received.selector ^\n            ERC1155TokenReceiver(0).onERC1155BatchReceived.selector\n        ] = true;\n\n        // Validate inputs\n        require(address(_pmSystem) != address(0) && _fee < FEE_RANGE);\n        pmSystem = _pmSystem;\n        collateralToken = _collateralToken;\n        conditionIds = _conditionIds;\n        fee = _fee;\n        whitelist = _whitelist;\n\n        atomicOutcomeSlotCount = 1;\n        outcomeSlotCounts = new uint[](conditionIds.length);\n        for (uint i = 0; i < conditionIds.length; i++) {\n            uint outcomeSlotCount = pmSystem.getOutcomeSlotCount(conditionIds[i]);\n            atomicOutcomeSlotCount *= outcomeSlotCount;\n            outcomeSlotCounts[i] = outcomeSlotCount;\n        }\n        require(atomicOutcomeSlotCount > 1, \"conditions must be valid\");\n\n        collectionIds = new bytes32[][](conditionIds.length);\n        _recordCollectionIDsForAllConditions(conditionIds.length, bytes32(0));\n\n        stage = Stage.Paused;\n        emit AMMCreated(funding);\n    }\n\n    function _recordCollectionIDsForAllConditions(uint conditionsLeft, bytes32 parentCollectionId) private {\n        if(conditionsLeft == 0) {\n            positionIds.push(CTHelpers.getPositionId(collateralToken, parentCollectionId));\n            return;\n        }\n\n        conditionsLeft--;\n\n        uint outcomeSlotCount = outcomeSlotCounts[conditionsLeft];\n\n        collectionIds[conditionsLeft].push(parentCollectionId);\n        for(uint i = 0; i < outcomeSlotCount; i++) {\n            _recordCollectionIDsForAllConditions(\n                conditionsLeft,\n                CTHelpers.getCollectionId(\n                    parentCollectionId,\n                    conditionIds[conditionsLeft],\n                    1 << i\n                )\n            );\n        }\n    }\n\n    function createLMSRMarketMaker(ConditionalTokens pmSystem, IERC20 collateralToken, bytes32[] calldata conditionIds, uint64 fee, Whitelist whitelist, uint funding)\n        external\n        returns (LMSRMarketMaker lmsrMarketMaker)\n    {\n        lmsrMarketMaker = LMSRMarketMaker(createClone(address(implementationMaster), abi.encode(pmSystem, collateralToken, conditionIds, fee, whitelist)));\n        collateralToken.transferFrom(msgSender(), address(this), funding);\n        collateralToken.approve(address(lmsrMarketMaker), funding);\n        lmsrMarketMaker.changeFunding(int(funding));\n        lmsrMarketMaker.resume();\n        lmsrMarketMaker.transferOwnership(msgSender());\n        emit LMSRMarketMakerCreation(msgSender(), lmsrMarketMaker, pmSystem, collateralToken, conditionIds, fee, funding);\n    }\n}\n",
  "sourcePath": "/home/prasad/Desktop/dg/conditional-tokens-tutorial/contracts/LMSRMarketMakerFactory.sol",
  "compiler": {
    "name": "solc",
    "version": "0.5.10+commit.5a6ea5b1.Emscripten.clang"
  },
  "schemaVersion": "3.4.3",
  "updatedAt": "2021-10-28T07:32:33.283Z",
  "networkType": "ethereum",
  "devdoc": {
    "methods": {}
  },
  "userdoc": {
    "methods": {}
  }
}