{
  "contractName": "Migrations",
  "abi": [
    {
      "constant": false,
      "inputs": [
        {
          "name": "userAddress",
          "type": "address"
        },
        {
          "name": "functionSignature",
          "type": "bytes"
        },
        {
          "name": "sigR",
          "type": "bytes32"
        },
        {
          "name": "sigS",
          "type": "bytes32"
        },
        {
          "name": "sigV",
          "type": "uint8"
        }
      ],
      "name": "executeMetaTransaction",
      "outputs": [
        {
          "name": "",
          "type": "bytes"
        }
      ],
      "payable": true,
      "stateMutability": "payable",
      "type": "function"
    },
    {
      "constant": true,
      "inputs": [
        {
          "name": "user",
          "type": "address"
        }
      ],
      "name": "getNonce",
      "outputs": [
        {
          "name": "nonce",
          "type": "uint256"
        }
      ],
      "payable": false,
      "stateMutability": "view",
      "type": "function"
    },
    {
      "constant": true,
      "inputs": [],
      "name": "owner",
      "outputs": [
        {
          "name": "",
          "type": "address"
        }
      ],
      "payable": false,
      "stateMutability": "view",
      "type": "function"
    },
    {
      "constant": true,
      "inputs": [],
      "name": "lastCompletedMigration",
      "outputs": [
        {
          "name": "",
          "type": "uint256"
        }
      ],
      "payable": false,
      "stateMutability": "view",
      "type": "function"
    },
    {
      "inputs": [],
      "payable": false,
      "stateMutability": "nonpayable",
      "type": "constructor"
    },
    {
      "anonymous": false,
      "inputs": [
        {
          "indexed": false,
          "name": "userAddress",
          "type": "address"
        },
        {
          "indexed": false,
          "name": "relayerAddress",
          "type": "address"
        },
        {
          "indexed": false,
          "name": "functionSignature",
          "type": "bytes"
        }
      ],
      "name": "MetaTransactionExecuted",
      "type": "event"
    },
    {
      "constant": false,
      "inputs": [
        {
          "name": "completed",
          "type": "uint256"
        }
      ],
      "name": "setCompleted",
      "outputs": [],
      "payable": false,
      "stateMutability": "nonpayable",
      "type": "function"
    },
    {
      "constant": false,
      "inputs": [
        {
          "name": "newAddress",
          "type": "address"
        }
      ],
      "name": "upgrade",
      "outputs": [],
      "payable": false,
      "stateMutability": "nonpayable",
      "type": "function"
    }
  ],
  "bytecode": "0x608060405234801561001057600080fd5b506040518060400160405280600481526020017f6e616d65000000000000000000000000000000000000000000000000000000008152506040518060400160405280600781526020017f76657273696f6e000000000000000000000000000000000000000000000000008152506040518060800160405280604f8152602001610c90604f91398051906020012082805190602001208280519060200120306100bc61014360201b60201c565b604080516020808201979097528082019590955260608501939093526001600160a01b03909116608084015260a0808401919091528151808403909101815260c0909201905280519101206000555061011e90506001600160e01b0361014816565b600280546001600160a01b0319166001600160a01b03929092169190911790556101a6565b600090565b6000333014156101a05760606000368080601f0160208091040260200160405190810160405280939291908181526020018383808284376000920191909152505050503601516001600160a01b031691506101a39050565b50335b90565b610adb806101b56000396000f3fe6080604052600436106100555760003560e01c80630900f0101461005a5780630c53c51c1461008f5780632d0335ab146101c85780638da5cb5b1461020d578063fbdbad3c1461023e578063fdacd57614610253575b600080fd5b34801561006657600080fd5b5061008d6004803603602081101561007d57600080fd5b50356001600160a01b031661027d565b005b610153600480360360a08110156100a557600080fd5b6001600160a01b0382351691908101906040810160208201356401000000008111156100d057600080fd5b8201836020820111156100e257600080fd5b8035906020019184600183028401116401000000008311171561010457600080fd5b91908080601f016020809104026020016040519081016040528093929190818152602001838380828437600092019190915250929550508235935050506020810135906040013560ff1661030a565b6040805160208082528351818301528351919283929083019185019080838360005b8381101561018d578181015183820152602001610175565b50505050905090810190601f1680156101ba5780820380516001836020036101000a031916815260200191505b509250505060405180910390f35b3480156101d457600080fd5b506101fb600480360360208110156101eb57600080fd5b50356001600160a01b0316610696565b60408051918252519081900360200190f35b34801561021957600080fd5b506102226106b1565b604080516001600160a01b039092168252519081900360200190f35b34801561024a57600080fd5b506101fb6106c0565b34801561025f57600080fd5b5061008d6004803603602081101561027657600080fd5b50356106c6565b6002546001600160a01b03166102916106ee565b6001600160a01b03161415610307576000819050806001600160a01b031663fdacd5766003546040518263ffffffff1660e01b815260040180828152602001915050600060405180830381600087803b1580156102ed57600080fd5b505af1158015610301573d6000803e3d6000fd5b50505050505b50565b606060006103178661074c565b90506000356001600160e01b031990811690821614156103685760405162461bcd60e51b815260040180806020018281038252603d815260200180610a49603d913960400191505060405180910390fd5b6103706109db565b50604080516060810182526001600160a01b038916600081815260016020908152908490205483528201529081018790526103ae888288888861076c565b6103e95760405162461bcd60e51b8152600401808060200182810382526021815260200180610a866021913960400191505060405180910390fd5b6001600160a01b0388166000908152600160208190526040909120546104149163ffffffff61085916565b600160008a6001600160a01b03166001600160a01b031681526020019081526020016000208190555060006060306001600160a01b0316898b6040516020018083805190602001908083835b6020831061047f5780518252601f199092019160209182019101610460565b6001836020036101000a038019825116818451168082178552505050505050905001826001600160a01b03166001600160a01b031660601b8152601401925050506040516020818303038152906040526040518082805190602001908083835b602083106104fe5780518252601f1990920191602091820191016104df565b6001836020036101000a0380198251168184511680821785525050505050509050019150506000604051808303816000865af19150503d8060008114610560576040519150601f19603f3d011682016040523d82523d6000602084013e610565565b606091505b5091509150816105bc576040805162461bcd60e51b815260206004820152601c60248201527f46756e6374696f6e2063616c6c206e6f74207375636365737366756c00000000604482015290519081900360640190fd5b7f5845892132946850460bff5a0083f71031bc5bf9aadcd40f1de79423eac9b10b8a338b60405180846001600160a01b03166001600160a01b03168152602001836001600160a01b03166001600160a01b0316815260200180602001828103825283818151815260200191508051906020019080838360005b8381101561064d578181015183820152602001610635565b50505050905090810190601f16801561067a5780820380516001836020036101000a031916815260200191505b5094505050505060405180910390a19998505050505050505050565b6001600160a01b031660009081526001602052604090205490565b6002546001600160a01b031681565b60035481565b6002546001600160a01b03166106da6106ee565b6001600160a01b0316141561030757600355565b6000333014156107465760606000368080601f0160208091040260200160405190810160405280939291908181526020018383808284376000920191909152505050503601516001600160a01b031691506107499050565b50335b90565b600081516000141561076057506000610767565b5060208101515b919050565b600080600161078261077d886108ba565b610989565b84878760405160008152602001604052604051808581526020018460ff1660ff1681526020018381526020018281526020019450505050506020604051602081039080840390855afa1580156107dc573d6000803e3d6000fd5b5050604051601f1901519150506001600160a01b038116610838576040805162461bcd60e51b8152602060048201526011602482015270496e76616c6964207369676e617475726560781b604482015290519081900360640190fd5b866001600160a01b0316816001600160a01b03161491505095945050505050565b6000828201838110156108b3576040805162461bcd60e51b815260206004820152601b60248201527f536166654d6174683a206164646974696f6e206f766572666c6f770000000000604482015290519081900360640190fd5b9392505050565b6000604051806080016040528060438152602001610a0660439139805190602001208260000151836020015184604001516040518082805190602001908083835b6020831061091a5780518252601f1990920191602091820191016108fb565b51815160001960209485036101000a019081169019919091161790526040805194909201849003842084820199909952838201979097526001600160a01b039095166060830152506080808201969096528351808203909601865260a001909252505081519101209050919050565b60006109936109d5565b82604051602001808061190160f01b81525060020183815260200182815260200192505050604051602081830303815290604052805190602001209050919050565b60005490565b60405180606001604052806000815260200160006001600160a01b0316815260200160608152509056fe4d6574615472616e73616374696f6e2875696e74323536206e6f6e63652c616464726573732066726f6d2c62797465732066756e6374696f6e5369676e61747572652966756e6374696f6e5369676e61747572652063616e206e6f74206265206f6620657865637574654d6574615472616e73616374696f6e206d6574686f645369676e657220616e64207369676e617475726520646f206e6f74206d61746368a265627a7a72305820cd9f655413a9239d849d0a8649692948ffce4b0f4863b04b821310700b03f96264736f6c634300050a0032454950373132446f6d61696e28737472696e67206e616d652c737472696e672076657273696f6e2c6164647265737320766572696679696e67436f6e74726163742c627974657333322073616c7429",
  "source": "pragma solidity ^0.5.1;\n\n// HACK: should be removed along with the hack-ey migration\n// when https://github.com/trufflesuite/truffle/pull/1085 hits\nimport \"canonical-weth/contracts/WETH9.sol\";\n\nimport \"./metatx/EIP712MetaTransaction.sol\";\n\ncontract Migrations is EIP712MetaTransaction {\n    address public owner;\n    uint public lastCompletedMigration;\n\n    modifier restricted() {\n        if (msgSender() == owner) _;\n    }\n\n    constructor() public {\n        owner = msgSender();\n    }\n\n    function setCompleted(uint completed) public restricted {\n        lastCompletedMigration = completed;\n    }\n\n    function upgrade(address newAddress) public restricted {\n        Migrations upgraded = Migrations(newAddress);\n        upgraded.setCompleted(lastCompletedMigration);\n    }\n}\n",
  "sourcePath": "/home/prasad/Desktop/dg/conditional-tokens-tutorial/contracts/Migrations.sol",
  "compiler": {
    "name": "solc",
    "version": "0.5.10+commit.5a6ea5b1.Emscripten.clang"
  },
  "schemaVersion": "3.4.3",
  "updatedAt": "2021-10-28T07:32:33.304Z",
  "networkType": "ethereum",
  "devdoc": {
    "methods": {}
  },
  "userdoc": {
    "methods": {}
  }
}