{
  "contractName": "Whitelist",
  "abi": [
    {
      "constant": false,
      "inputs": [
        {
          "name": "userAddress",
          "type": "address"
        },
        {
          "name": "functionSignature",
          "type": "bytes"
        },
        {
          "name": "sigR",
          "type": "bytes32"
        },
        {
          "name": "sigS",
          "type": "bytes32"
        },
        {
          "name": "sigV",
          "type": "uint8"
        }
      ],
      "name": "executeMetaTransaction",
      "outputs": [
        {
          "name": "",
          "type": "bytes"
        }
      ],
      "payable": true,
      "stateMutability": "payable",
      "type": "function"
    },
    {
      "constant": true,
      "inputs": [
        {
          "name": "user",
          "type": "address"
        }
      ],
      "name": "getNonce",
      "outputs": [
        {
          "name": "nonce",
          "type": "uint256"
        }
      ],
      "payable": false,
      "stateMutability": "view",
      "type": "function"
    },
    {
      "constant": true,
      "inputs": [
        {
          "name": "",
          "type": "address"
        }
      ],
      "name": "isWhitelisted",
      "outputs": [
        {
          "name": "",
          "type": "bool"
        }
      ],
      "payable": false,
      "stateMutability": "view",
      "type": "function"
    },
    {
      "constant": false,
      "inputs": [],
      "name": "renounceOwnership",
      "outputs": [],
      "payable": false,
      "stateMutability": "nonpayable",
      "type": "function"
    },
    {
      "constant": true,
      "inputs": [],
      "name": "owner",
      "outputs": [
        {
          "name": "",
          "type": "address"
        }
      ],
      "payable": false,
      "stateMutability": "view",
      "type": "function"
    },
    {
      "constant": true,
      "inputs": [],
      "name": "isOwner",
      "outputs": [
        {
          "name": "",
          "type": "bool"
        }
      ],
      "payable": false,
      "stateMutability": "view",
      "type": "function"
    },
    {
      "constant": false,
      "inputs": [
        {
          "name": "newOwner",
          "type": "address"
        }
      ],
      "name": "transferOwnership",
      "outputs": [],
      "payable": false,
      "stateMutability": "nonpayable",
      "type": "function"
    },
    {
      "anonymous": false,
      "inputs": [
        {
          "indexed": false,
          "name": "users",
          "type": "address[]"
        }
      ],
      "name": "UsersAddedToWhitelist",
      "type": "event"
    },
    {
      "anonymous": false,
      "inputs": [
        {
          "indexed": false,
          "name": "users",
          "type": "address[]"
        }
      ],
      "name": "UsersRemovedFromWhitelist",
      "type": "event"
    },
    {
      "anonymous": false,
      "inputs": [
        {
          "indexed": true,
          "name": "previousOwner",
          "type": "address"
        },
        {
          "indexed": true,
          "name": "newOwner",
          "type": "address"
        }
      ],
      "name": "OwnershipTransferred",
      "type": "event"
    },
    {
      "anonymous": false,
      "inputs": [
        {
          "indexed": false,
          "name": "userAddress",
          "type": "address"
        },
        {
          "indexed": false,
          "name": "relayerAddress",
          "type": "address"
        },
        {
          "indexed": false,
          "name": "functionSignature",
          "type": "bytes"
        }
      ],
      "name": "MetaTransactionExecuted",
      "type": "event"
    },
    {
      "constant": false,
      "inputs": [
        {
          "name": "users",
          "type": "address[]"
        }
      ],
      "name": "addToWhitelist",
      "outputs": [],
      "payable": false,
      "stateMutability": "nonpayable",
      "type": "function"
    },
    {
      "constant": false,
      "inputs": [
        {
          "name": "users",
          "type": "address[]"
        }
      ],
      "name": "removeFromWhitelist",
      "outputs": [],
      "payable": false,
      "stateMutability": "nonpayable",
      "type": "function"
    }
  ],
  "bytecode": "0x600460809081527f6e616d650000000000000000000000000000000000000000000000000000000060a052600760c09081527f76657273696f6e0000000000000000000000000000000000000000000000000060e052610180604052604f610100818152906111436101203980519060200120828051906020012082805190602001203061009161014460201b60201c565b604080516020808201979097528082019590955260608501939093526001600160a01b03909116608084015260a0808401919091528151808403909101815260c090920190528051910120600055506100f390506001600160e01b0361014916565b600280546001600160a01b0319166001600160a01b0392831617908190556040519116906000907f8be0079c531659141344cd1fd0a4f28419497f9722a3daafe3b4186f6b6457e0908290a36101a7565b600090565b6000333014156101a15760606000368080601f0160208091040260200160405190810160405280939291908181526020018383808284376000920191909152505050503601516001600160a01b031691506101a49050565b50335b90565b610f8d806101b66000396000f3fe6080604052600436106100865760003560e01c8063715018a611610059578063715018a6146102cf5780637f649783146102e45780638da5cb5b146103615780638f32d59b14610392578063f2fde38b146103a757610086565b80630c53c51c1461008b5780632d0335ab146101c45780633af32abf14610209578063548db17414610250575b600080fd5b61014f600480360360a08110156100a157600080fd5b6001600160a01b0382351691908101906040810160208201356401000000008111156100cc57600080fd5b8201836020820111156100de57600080fd5b8035906020019184600183028401116401000000008311171561010057600080fd5b91908080601f016020809104026020016040519081016040528093929190818152602001838380828437600092019190915250929550508235935050506020810135906040013560ff166103da565b6040805160208082528351818301528351919283929083019185019080838360005b83811015610189578181015183820152602001610171565b50505050905090810190601f1680156101b65780820380516001836020036101000a031916815260200191505b509250505060405180910390f35b3480156101d057600080fd5b506101f7600480360360208110156101e757600080fd5b50356001600160a01b0316610766565b60408051918252519081900360200190f35b34801561021557600080fd5b5061023c6004803603602081101561022c57600080fd5b50356001600160a01b0316610781565b604080519115158252519081900360200190f35b34801561025c57600080fd5b506102cd6004803603602081101561027357600080fd5b81019060208101813564010000000081111561028e57600080fd5b8201836020820111156102a057600080fd5b803590602001918460208302840111640100000000831117156102c257600080fd5b509092509050610796565b005b3480156102db57600080fd5b506102cd61089b565b3480156102f057600080fd5b506102cd6004803603602081101561030757600080fd5b81019060208101813564010000000081111561032257600080fd5b82018360208201111561033457600080fd5b8035906020019184602083028401116401000000008311171561035657600080fd5b50909250905061092c565b34801561036d57600080fd5b50610376610a31565b604080516001600160a01b039092168252519081900360200190f35b34801561039e57600080fd5b5061023c610a40565b3480156103b357600080fd5b506102cd600480360360208110156103ca57600080fd5b50356001600160a01b0316610a66565b606060006103e786610ab9565b90506000356001600160e01b031990811690821614156104385760405162461bcd60e51b815260040180806020018281038252603d815260200180610edb603d913960400191505060405180910390fd5b610440610e47565b50604080516060810182526001600160a01b0389166000818152600160209081529084902054835282015290810187905261047e8882888888610ad9565b6104b95760405162461bcd60e51b8152600401808060200182810382526021815260200180610f386021913960400191505060405180910390fd5b6001600160a01b0388166000908152600160208190526040909120546104e49163ffffffff610bc616565b600160008a6001600160a01b03166001600160a01b031681526020019081526020016000208190555060006060306001600160a01b0316898b6040516020018083805190602001908083835b6020831061054f5780518252601f199092019160209182019101610530565b6001836020036101000a038019825116818451168082178552505050505050905001826001600160a01b03166001600160a01b031660601b8152601401925050506040516020818303038152906040526040518082805190602001908083835b602083106105ce5780518252601f1990920191602091820191016105af565b6001836020036101000a0380198251168184511680821785525050505050509050019150506000604051808303816000865af19150503d8060008114610630576040519150601f19603f3d011682016040523d82523d6000602084013e610635565b606091505b50915091508161068c576040805162461bcd60e51b815260206004820152601c60248201527f46756e6374696f6e2063616c6c206e6f74207375636365737366756c00000000604482015290519081900360640190fd5b7f5845892132946850460bff5a0083f71031bc5bf9aadcd40f1de79423eac9b10b8a338b60405180846001600160a01b03166001600160a01b03168152602001836001600160a01b03166001600160a01b0316815260200180602001828103825283818151815260200191508051906020019080838360005b8381101561071d578181015183820152602001610705565b50505050905090810190601f16801561074a5780820380516001836020036101000a031916815260200191505b5094505050505060405180910390a19998505050505050505050565b6001600160a01b031660009081526001602052604090205490565b60036020526000908152604090205460ff1681565b61079e610a40565b6107dd576040805162461bcd60e51b81526020600482018190526024820152600080516020610f18833981519152604482015290519081900360640190fd5b60005b81811015610833576000600360008585858181106107fa57fe5b602090810292909201356001600160a01b0316835250810191909152604001600020805460ff19169115159190911790556001016107e0565b507f980469cd56680c471176aaf1931063250267d2044b92e69bd162f7f4bafba861828260405180806020018281038252848482818152602001925060200280828437600083820152604051601f909101601f19169092018290039550909350505050a15050565b6108a3610a40565b6108e2576040805162461bcd60e51b81526020600482018190526024820152600080516020610f18833981519152604482015290519081900360640190fd5b6002546040516000916001600160a01b0316907f8be0079c531659141344cd1fd0a4f28419497f9722a3daafe3b4186f6b6457e0908390a3600280546001600160a01b0319169055565b610934610a40565b610973576040805162461bcd60e51b81526020600482018190526024820152600080516020610f18833981519152604482015290519081900360640190fd5b60005b818110156109c95760016003600085858581811061099057fe5b602090810292909201356001600160a01b0316835250810191909152604001600020805460ff1916911515919091179055600101610976565b507f571817b02d15d247d0d4961fca494acd141f951ca62623d639cbbcd882a5290d828260405180806020018281038252848482818152602001925060200280828437600083820152604051601f909101601f19169092018290039550909350505050a15050565b6002546001600160a01b031690565b6002546000906001600160a01b0316610a57610c27565b6001600160a01b031614905090565b610a6e610a40565b610aad576040805162461bcd60e51b81526020600482018190526024820152600080516020610f18833981519152604482015290519081900360640190fd5b610ab681610c85565b50565b6000815160001415610acd57506000610ad4565b5060208101515b919050565b6000806001610aef610aea88610d26565b610df5565b84878760405160008152602001604052604051808581526020018460ff1660ff1681526020018381526020018281526020019450505050506020604051602081039080840390855afa158015610b49573d6000803e3d6000fd5b5050604051601f1901519150506001600160a01b038116610ba5576040805162461bcd60e51b8152602060048201526011602482015270496e76616c6964207369676e617475726560781b604482015290519081900360640190fd5b866001600160a01b0316816001600160a01b03161491505095945050505050565b600082820183811015610c20576040805162461bcd60e51b815260206004820152601b60248201527f536166654d6174683a206164646974696f6e206f766572666c6f770000000000604482015290519081900360640190fd5b9392505050565b600033301415610c7f5760606000368080601f0160208091040260200160405190810160405280939291908181526020018383808284376000920191909152505050503601516001600160a01b03169150610c829050565b50335b90565b6001600160a01b038116610cca5760405162461bcd60e51b8152600401808060200182810382526026815260200180610eb56026913960400191505060405180910390fd5b6002546040516001600160a01b038084169216907f8be0079c531659141344cd1fd0a4f28419497f9722a3daafe3b4186f6b6457e090600090a3600280546001600160a01b0319166001600160a01b0392909216919091179055565b6000604051806080016040528060438152602001610e7260439139805190602001208260000151836020015184604001516040518082805190602001908083835b60208310610d865780518252601f199092019160209182019101610d67565b51815160001960209485036101000a019081169019919091161790526040805194909201849003842084820199909952838201979097526001600160a01b039095166060830152506080808201969096528351808203909601865260a001909252505081519101209050919050565b6000610dff610e41565b82604051602001808061190160f01b81525060020183815260200182815260200192505050604051602081830303815290604052805190602001209050919050565b60005490565b60405180606001604052806000815260200160006001600160a01b0316815260200160608152509056fe4d6574615472616e73616374696f6e2875696e74323536206e6f6e63652c616464726573732066726f6d2c62797465732066756e6374696f6e5369676e6174757265294f776e61626c653a206e6577206f776e657220697320746865207a65726f206164647265737366756e6374696f6e5369676e61747572652063616e206e6f74206265206f6620657865637574654d6574615472616e73616374696f6e206d6574686f644f776e61626c653a2063616c6c6572206973206e6f7420746865206f776e65725369676e657220616e64207369676e617475726520646f206e6f74206d61746368a265627a7a723058200a45dfd42bf37b7e66e1b88700debab5723b1b433ee437eecb2e5d4b8c1c10d864736f6c634300050a0032454950373132446f6d61696e28737472696e67206e616d652c737472696e672076657273696f6e2c6164647265737320766572696679696e67436f6e74726163742c627974657333322073616c7429",
  "source": "pragma solidity ^0.5.1;\n\nimport './utils/Ownable.sol'; \n\n/// @title Whitelist for adding/removing users from a whitelist\n/// @author Anton Shtylman - @InfiniteStyles\ncontract Whitelist is Ownable {\n\n  event UsersAddedToWhitelist(address[] users);\n  event UsersRemovedFromWhitelist(address[] users);\n\n  mapping(address => bool) public isWhitelisted;\n\n  function addToWhitelist(address[] calldata users) onlyOwner external {\n    for (uint i = 0; i < users.length; i++) {\n      isWhitelisted[users[i]] = true;\n    }\n    emit UsersAddedToWhitelist(users);\n  }\n\n  function removeFromWhitelist(address[] calldata users) onlyOwner external {\n    for (uint i = 0; i < users.length; i++) {\n      isWhitelisted[users[i]] = false;\n    }\n    emit UsersRemovedFromWhitelist(users);\n  }\n}\n",
  "sourcePath": "/home/prasad/Desktop/dg/conditional-tokens-tutorial/contracts/Whitelist.sol",
  "compiler": {
    "name": "solc",
    "version": "0.5.10+commit.5a6ea5b1.Emscripten.clang"
  },
  "schemaVersion": "3.4.3",
  "updatedAt": "2021-10-28T07:29:13.619Z",
  "devdoc": {
    "author": "Anton Shtylman - @InfiniteStyles",
    "methods": {
      "isOwner()": {
        "details": "Returns true if the caller is the current owner."
      },
      "owner()": {
        "details": "Returns the address of the current owner."
      },
      "renounceOwnership()": {
        "details": "Leaves the contract without owner. It will not be possible to call `onlyOwner` functions anymore. Can only be called by the current owner.     * > Note: Renouncing ownership will leave the contract without an owner, thereby removing any functionality that is only available to the owner."
      },
      "transferOwnership(address)": {
        "details": "Transfers ownership of the contract to a new account (`newOwner`). Can only be called by the current owner."
      }
    },
    "title": "Whitelist for adding/removing users from a whitelist"
  },
  "userdoc": {
    "methods": {}
  }
}